S01200004E69786965436C6F636B2E7372656329
S113000013C022C021C020C01FC01EC01DC01CC000
S11300101BC01AC019C018C025C016C015C014C012
S11300208CC112C011C010C011241FBECFEFD2E08A
S1130030DEBFCDBF21E0A0E0B1E001C01D92AF352D
S1130040B207E1F706D2ADC7DBCF8DB18CE08DB935
S11300501EB86898709A229A15B88AB18EEF8AB938
S11300601BB808951F920F920FB60F9211242F936D
S11300705F936F937F938F939F93AF93BF93CF932C
S1130080DF93EF93FF9380915C01811130C08091E5
S11300905B0120915A01811114C0EFEFE20FEC30A3
S11300A0A8F4F0E0EB5AFF4F0994AFC048C099C0E0
S11300B046C073C044C062C042C081C040C09BC03F
S11300C03EC0813049F1823009F43EC02F5F2D30AB
S11300D0F8F420935A0180915101909152010196B4
S11300E0909352018093510181E080934A01FF91E2
S11300F0EF91DF91CF91BF91AF919F918F917F91BC
S11301006F915F912F910F900FBE0F901F901895D4
S113011081E080935A01DFCFEFEFE20FEB30B0F6CE
S1130120F0E0EC56FF4F0994A2C009C0CFCF7FC0C6
S113013006C0CCCF91C003C0C9CF84C000C08BB16E
S1130140817088618BB9C2CFEFEFE20FEC3008F019
S1130150BDCFF0E0E255FF4F8BB10994D7C00AC080
S1130160C3C008C0AFC006C0A4C004C0B4C002C0AD
S1130170C4C000C0817088618BB9A8CF8BB18F7166
S113018080688BB9809157018A3008F09FCF9BB16A
S1130190917E880F892B8BB999CF809154016AE0A5
S11301A008D580935601909357018BB18F71806667
S11301B08BB9809156018A3008F088CFE8CF8091BE
S11301C053016AE0F6D480935601909357018BB1A2
S11301D08F71806A8BB9809156018A3008F076CF8E
S11301E0D6CF8BB18F7180648BB9809157018A30DF
S11301F008F06CCFCCCF8BB18F71806C8BB98091B0
S113020057018A3008F062CFC2CF809155016AE06D
S1130210D0D480935601909357018BB18F71806233
S11302208BB9809156018A3008F050CFB0CF8BB192
S11302308F7180688BB9809157018A3008F476C039
S1130240739A44CF8BB18F71806C8BB980915901B3
S11302508A3008F03BCF9BCF8BB18F71806A8BB90A
S1130260809158018A3008F45AC073982FCFE091D6
S11302700101F0910201CF0160E177E2A6D460931D
S11302805601C8EED3E0BE01A0D460935701CF015C
S1130290BE019BD4C4E6D0E0BE0197D4609358015C
S11302A0CF01BE0192D46AE070E08FD4609359010B
S11302B07CCF8F7180688BB980914E018A3008F0B1
S11302C005CF65CF8F7180668BB980914D018A30DF
S11302D008F0FCCE5CCF8F71806A8BB980914F019E
S11302E08A3008F0F3CE53CF8F7180648BB980913C
S11302F04C018A3008F0EACE4ACF8F71806C8BB9FA
S1130300809150018A3008F0E1CE41CF8F71806234
S11303108BB980914B018A3008F0D8CE38CF9BB18D
S1130320917E880F892B8BB97398D0CE9BB1917E27
S1130330880F892B8BB9739AC9CE1F920F920FB66F
S11303400F9211242F933F934F935F936F937F9357
S11303508F939F93AF93BF93EF93FF93E0911D010E
S11303606091190170911A0180911B0190911C01F7
S1130370E431D0F52091780030917900AB01BC01D3
S1130380420F531F611D711D4093190150931A01AF
S113039060931B0170931C0181E08E0F80931D01FB
S11303A060911101709112018091130190911401D7
S11303B020E030E048E453E485D5181624F4109284
S11303C08B0010928A00FF91EF91BF91AF919F91A2
S11303D08F917F916F915F914F913F912F910F90EA
S11303E00FBE0F901F90189524E130E040E050E0DC
S11303F000D4CA01B901B4D46093150170931601F5
S1130400809317019093180129E030EF4CE85AE3E8
S11304105DD560930D0170930E0180930F0190934D
S1130420100120E030E043E553E450D5609311011E
S11304307093120180931301909314011092190187
S113044010921A0110921B0110921C0110921D01AE
S1130450AFCF8AE097EDA3E2BCE38093360190939B
S11304603701A0933801B093390187E197EBA1E5F7
S1130470B8E380933A0190933B01A0933C01B0937D
S11304803D0110923E0110923F01109240011092E2
S1130490410141E050E060E070E08EE191E0F9D28A
S11304A0D4DD85B5836085BD85B5886085BD8091C3
S11304B06E00826080936E008CEA87BD809180001C
S11304C082608093800080918000806280938000AD
S11304D08091810081608093810080918100886097
S11304E0809381006BD237D378942FEF83ED90E320
S11304F0215080409040E1F700C0000030D380E9F3
S11305003AD380E038D32BD381E935D33ED38093DB
S1130510090145D380930A012AD36091090170919E
S11305200A017627672776277695679572956295EF
S11305306F7067277F706727072E000C880B990B55
S113054011D420E030E04AEF52E4C0D4DDD37093FC
S1130550040160930301BB24B39409E611E0CAE0EB
S1130560D0E080915C01811105C080915D018823F8
S113057009F4CFC0F4D282EAFED282E0FCD2EFD2F8
S113058083EAF9D202D38F77D5D280935301FDD277
S11305908F77D0D28093540102D38F73CBD28093C0
S11305A05501E5D260995AC0809100018F5F8F3F59
S11305B009F4D1C08093000180915501863008F47C
S11305C054C010925C0110925D0180915E01811112
S11305D00FC010928B0010928A008091800080627C
S11305E080938000B0925E0180915C018111C2CF42
S11305F080914A01811123C180915301893009F40A
S1130600C1C096EF980F953008F06BC1B0925B01B2
S113061090910C01992309F451C18D3109F4ADC0B5
S113062092EE980F953008F069C182E080935B01E7
S11306308091510190915201B801C7D2CB01BE0102
S1130640C4D280934B0180934C0180934D018093DD
S11306504E0180934F018093500183CF109200018B
S113066080915501863008F0ACCFB0925D01C09006
S11306704201D0904301E0904401F090450120E014
S113068030E0A901C701B6011DD418168CF42AE084
S113069037ED43EA5BE3C701B601CDD26B017C01C0
S11306A0C0924201D0924301E0924401F09245018C
S11306B020E030E048EC52E4C701B60121D387FFC3
S11306C093CFB0925C018BB1817088618BB98091BA
S11306D05E01882359F010928B0010928A00809159
S11306E080008F7D8093800010925E018091530181
S11306F080FF7ACF589A8FE891E00197F1F700C014
S1130700000058988FE193E00197F1F700C00000D2
S11307106BCFC0904201D0904301E0904401F0902F
S1130720450120E030E044E353E4C701B601E8D2D8
S113073018160CF41FCF2AE037ED43E25CE3C7013F
S1130740B6017AD2609342017093430180934401CD
S1130750909345010FCF1092000101D282EA0BD28F
S113076082E009D280E0F1D106D280E0EED103D25A
S113077084E1EBD100D2FBD11FCF10925201109231
S11307805101EFCE90910C019111C9C02091030148
S113079030910401309302012093010190910B01E7
S11307A02091070130910801992341F02F5F3F4FB9
S11307B0309308012093070110920B0120313E4031
S11307C009F02BCFCCD180E9D6D180E0D4D1C7D1E8
S11307D081E9D1D1DAD180930901E1D180930A0171
S11307E0C6D16091090170910A017627672776279F
S11307F076956795729562956F7067277F70672706
S1130800072E000C880B990BADD220E030E04AEFA4
S113081052E45CD379D27093020160930101209178
S1130820030130910401C901861B970B90930601C3
S113083080930501B0920C0180915301EECE20917A
S113084011013091120140911301509114016091F2
S11308504201709143018091440190914501EBD193
S1130860AB01BC018EE191E0BAD06B017C0120E0C8
S113087030E0A90145D287FD47C023E333E343E3D6
S11308805FE3C701B6011ED318160CF488C0C092EA
S11308904601D0924701E0924801F092490120E0DC
S11308A030E84FEF53E4C701B60110D32DD2709353
S11308B08B0060938A0010924A019ECE90910B01A6
S11308C0209107013091080180FD6ECF911176CF00
S11308D02F5F3F4F3093080120930701B0920B0123
S11308E06DCF90910C018F3009F094CE10925B0182
S11308F0739890910C01809153018CCE833209F04E
S113090030CE10925B012DCE109246011092470119
S1130910109248011092490170E060E0C8CF1FD1E5
S113092080E929D180E027D11AD181E924D12DD1C0
S11309308093090134D180930A0119D1609109018E
S113094070910A01762767277627769567957295C1
S113095062956F7067277F706727072E000C880BDE
S1130960990B00D220E030E04AEF52E4AFD26B01A1
S11309707C016091050170910601072E000C880B23
S1130980990BF0D19B01AC01C701B60155D1BCD183
S113099070930201609301018091530132CE83E38D
S11309A093E3A3E3BFE38093460190934701A093AD
S11309B04801B093490165E671E079CFEAE7F0E0D8
S11309C080818F6A8083ACE7B0E08C91807F8C93C8
S11309D08C918F7B8C9380818064808308954F9267
S11309E05F926F927F928F929F92AF92BF92CF92BB
S11309F0DF92EF92FF92CF93DF93EC016A017B01C8
S1130A008C849D84AE84BF84288139814A815B8132
S1130A10CB01B6015BD22B013C012C813D814E817F
S1130A205F81C501B40152D29B01AC01C301B20183
S1130A3003D12C893D894E895F89FED02B013C016D
S1130A40288939894A895B89688579858A859B855E
S1130A503DD29B01AC01C301B201EED0888A998AD0
S1130A60AA8ABB8ACC86DD86EE86FF866C8B7D8B5C
S1130A708E8B9F8BDF91CF91FF90EF90DF90CF9083
S1130A80BF90AF909F908F907F906F905F904F90AA
S1130A9008954F925F926F927F928F929F92AF923E
S1130AA0BF92CF92DF92EF92FF92CF93DF93EC014C
S1130AB04A015B01488C598C6A8C7B8CC8A0D9A0F4
S1130AC0EAA0FBA02C8D3D8D4E8D5F8DC301B2013C
S1130AD0B3D0A7019601B0D0688379838A839B83BE
S1130AE0A7019601C701B601A7D0A3019201A4D022
S1130AF090586C837D838E839F83C886D986EA86CB
S1130B00FB8689288A288B2831F02C968CE0FE01FC
S1130B1011928A95E9F7DF91CF91FF90EF90DF90E2
S1130B20CF90BF90AF909F908F907F906F905F9089
S1130B304F900895282F22952F70922F990F990F77
S1130B40920F990F8F70890F08956AE032D08295C1
S1130B50807F892B089588E48093B800089584EAFF
S1130B608093BC008091BC0087FFFCCF089584E98A
S1130B708093BC0008958093BB0084E88093BC00FC
S1130B808091BC0087FFFCCF089584EC8093BC0067
S1130B908091BC0087FFFCCF8091BB00089584E85E
S1130BA08093BC008091BC0087FFFCCF8091BB0088
S1130BB00895991B79E004C0991F961708F0961BB5
S1130BC0881F7A95C9F780950895AA1BBB1B51E12C
S1130BD007C0AA1FBB1FA617B70710F0A61BB70BA9
S1130BE0881F991F5A95A9F780959095BC01CD014E
S1130BF00895A1E21A2EAA1BBB1BFD010DC0AA1F5A
S1130C00BB1FEE1FFF1FA217B307E407F50720F071
S1130C10A21BB30BE40BF50B661F771F881F991FEC
S1130C201A9469F760957095809590959B01AC0135
S1130C30BD01CF0108955058BB27AA270ED008C183
S1130C40F9D030F0FED020F031F49F3F11F41EF4BF
S1130C50EEC00EF4E095E7FBE4C0E92F0AD180F37F
S1130C60BA17620773078407950718F071F49EF5A5
S1130C7022C10EF4E0950B2EBA2FA02D0B01B90161
S1130C8090010C01CA01A0011124FF27591B99F0FE
S1130C90593F50F4503E68F11A16F040A22F232F0A
S1130CA0342F4427585FF3CF469537952795A7955A
S1130CB0F0405395C9F77EF41F16BA0B620B730B01
S1130CC0840BBAF09150A1F0FF0FBB1F661F771F72
S1130CD0881FC2F70EC0BA0F621F731F841F48F427
S1130CE0879577956795B795F7959E3F08F0B3CFAD
S1130CF09395880F08F09927EE0F97958795089597
S1130D006CD008F481E00895BCD088F09F5790F02F
S1130D10B92F9927B751A0F0D1F0660F771F881F1C
S1130D20991F1AF0BA95C9F712C0B13081F0C3D037
S1130D30B1E00895C0C0672F782F8827B85F39F0D5
S1130D40B93FCCF3869577956795B395D9F73EF47B
S1130D5090958095709561957F4F8F4F9F4F089523
S1130D60E89409C097FB3EF4909580957095619541
S1130D707F4F8F4F9F4F9923A9F0F92F96E9BB27F7
S1130D809395F695879577956795B795F111F8CF73
S1130D90FAF4BB0F11F460FF1BC06F5F7F4F8F4FDE
S1130DA09F4F16C0882311F096E911C0772321F0D4
S1130DB09EE8872F762F05C0662371F096E8862F6C
S1130DC070E060E02AF09A95660F771F881FDAF7C3
S1130DD0880F9695879597F90895990F0008550FF0
S1130DE0AA0BE0E8FEEF16161706E807F907C0F0AD
S1130DF012161306E407F50798F0621B730B840BB5
S1130E00950B39F40A2661F0232B242B252B21F48E
S1130E1008950A2609F4A140A6958FEF811D811D2E
S1130E20089597F99F6780E870E060E008959FEF68
S1130E3080EC089500240A9416161706180609066D
S1130E40089500240A94121613061406050608953C
S1130E50092E0394000C11F4882352F0BB0F40F4C4
S1130E60BF2B11F460FF04C06F5F7F4F8F4F9F4F04
S1130E70089557FD9058440F551F59F05F3F71F086
S1130E804795880F97FB991F61F09F3F79F08795ED
S1130E900895121613061406551FF2CF4695F1DF76
S1130EA008C0161617061806991FF1CF8695710506
S1130EB0610508940895E894BB2766277727CB013A
S1130EC097F908958ADF08F48FEF08950AD0C0CF08
S1130ED0B1DF28F0B6DF18F0952309F0A2CFA7CF31
S1130EE0EBCFC7DFA8F39923D9F35523C9F3950FA3
S1130EF050E0551FAA27EE27FF27BB27002408949C
S1130F00679520F4E20FF31FB41F0A1E220F331F4C
S1130F10441FAA1F6695A9F7779530F4F30FB41F01
S1130F200A1E121E08F46395330F441FAA1F221FC2
S1130F30769599F7879520F4B40F0A1E121E631F45
S1130F40440FAA1F221F331F8695A9F7862F712DE0
S1130F50602D11249F5750408AF0E1F088234AF015
S1130F60EE0FFF1FBB1F661F771F881F9150504055
S1130F70A9F79E3F510570F054CF9ECF5F3FECF32D
S1130F80983EDCF3869577956795B795F795E79541
S1130F909F5FC1F7FE2B880F911D9695879597F952
S1090FA00895F894FFCF50
S9030000FC
