S01200004E69786965436C6F636B2E7372656329
S113000013C022C021C020C01FC01EC01DC01CC000
S11300101BC01AC019C018C025C016C015C014C012
S113002096C112C011C010C011241FBECFEFD2E080
S1130030DEBFCDBF21E0A0E0B1E001C01D92A33638
S1130040B207E1F710D207C9DBCF8DB18CE08DB9CF
S11300501EB86898709A229A15B88AB18FEF8AB937
S11300601BB808951F920F920FB60F9211242F936D
S11300705F936F937F938F939F93AF93BF93CF932C
S1130080DF93EF93FF938091600181113AC08091D7
S11300905F0120915E01811114C0EFEFE20FEC309B
S11300A0A8F4F0E0EB5AFF4F0994B9C052C0A3C0C2
S11300B050C07DC04EC06CC04CC08BC04AC0A5C0EF
S11300C048C0813099F1823009F448C02F5F2D3047
S11300D048F520935E018091510190915201A091C5
S11300E05301B09154010196A11DB11D809351019A
S11300F090935201A0935301B093540181E08093F3
S11301004A01FF91EF91DF91CF91BF91AF919F9100
S11301108F917F916F915F912F910F900FBE0F90F0
S11301201F90189581E080935E01D5CFEFEFE20F29
S1130130EB3060F6F0E0E256FF4F0994A2C009C02C
S1130140C5CF7FC006C0C2CF91C003C0BFCF84C09B
S113015000C08BB1817088618BB9B8CFEFEFE20F2B
S1130160EC3008F0B3CFF0E0E854FF4F8BB10994C2
S1130170D7C00AC0C3C008C0AFC006C0A4C004C072
S1130180B4C002C0C4C000C0817088618BB99ECF66
S11301908BB18F7180688BB980915B018A3008F0D4
S11301A095CF9BB1917E880F892B8BB98FCF80918E
S11301B058016AE058D680935A0190935B018BB141
S11301C08F7180668BB980915A018A3008F07ECF96
S11301D0E8CF809157016AE046D680935A01909304
S11301E05B018BB18F71806A8BB980915A018A301F
S11301F008F06CCFD6CF8BB18F7180648BB98091AE
S11302005B018A3008F062CFCCCF8BB18F71806CE8
S11302108BB980915B018A3008F058CFC2CF8091AE
S113022059016AE020D680935A0190935B018BB107
S11302308F7180628BB980915A018A3008F046CF61
S1130240B0CF8BB18F7180688BB980915B018A309C
S113025008F476C0739A3ACF8BB18F71806C8BB9E6
S113026080915D018A3008F031CF9BCF8BB18F71C3
S1130270806A8BB980915C018A3008F45AC0739803
S113028025CFE0910101F0910201CF0160E177E215
S1130290F6D560935A01C8EED3E0BE01F0D5609361
S11302A05B01CF01BE01EBD5C4E6D0E0BE01E7D5CA
S11302B060935C01CF01BE01E2D56AE070E0DFD556
S11302C060935D017CCF8F7180688BB980914E0102
S11302D08A3008F0FBCE65CF8F7180668BB9809130
S11302E04D018A3008F0F2CE5CCF8F71806A8BB9F1
S11302F080914F018A3008F0E9CE53CF8F7180642A
S11303008BB980914C018A3008F0E0CE4ACF8F71CE
S1130310806C8BB9809150018A3008F0D7CE41CFE0
S11303208F7180628BB980914B018A3008F0CECEF8
S113033038CF9BB1917E880F892B8BB97398C6CE29
S11303409BB1917E880F892B8BB9739ABFCE1F9274
S11303500F920FB60F9211242F933F934F935F93F5
S11303606F937F938F939F93AF93BF93EF93FF9379
S1130370E0911D016091190170911A0180911B0196
S113038090911C01E431D0F52091780030917900EE
S1130390AB01BC01420F531F611D711D4093190134
S11303A050931A0160931B0170931C0181E08E0F1E
S11303B080931D01609111017091120180911301CC
S11303C09091140120E030E048E453E4D5D61816A7
S11303D024F410928B0010928A00FF91EF91BF9148
S11303E0AF919F918F917F916F915F914F913F91C9
S11303F02F910F900FBE0F901F90189524E130E0BD
S113040040E050E050D5CA01B90104D6609315010B
S113041070931601809317019093180129E030EF2F
S11304204CE85AE3ADD660930D0170930E018093AE
S11304300F019093100120E030E043E553E4A0D68F
S1130440609311017093120180931301909314012E
S11304501092190110921A0110921B0110921C01A2
S113046010921D01AFCF8AE097EDA3E2BCE3809325
S1130470360190933701A0933801B093390187E195
S113048097EBA1E5B8E380933A0190933B01A093E5
S11304903C01B0933D0110923E0110923F01109235
S11304A040011092410141E050E060E070E08EE1D3
S11304B091E049D4CADD85B5836085BD85B5886082
S11304C085BD80916E00826080936E008CEA87BD4A
S11304D0809180008260809380008091800080629F
S11304E0809380008091810081608093810080915D
S11304F08100886080938100BBD387D478942FEFE8
S113050083ED90E3215080409040E1F700C000006B
S113051080D480E98AD480E088D47BD481E985D4EE
S11305208ED48093090195D480930A017AD4609182
S1130530090170910A0176276727762776956795D2
S1130540729562956F7067277F706727072E000C7E
S1130550880B990B61D520E030E04AEF52E410D6C5
S11305602DD5709304016093030153D482EA5DD4C2
S11305708DE05BD483E059D454D44BD482EA55D46F
S113058082E053D480E03BD450D485E338D44DD4B6
S11305908BE035D44AD445D4D1E039E6432E5524F2
S11305A05394612C712C4AE0842E912CA12CB12CF3
S11305B0C1E01AE056E0352E80916001811105C03A
S11305C080916101882309F429C123D482EA2DD4BE
S11305D082E02BD41ED483EA28D431D48F7704D478
S11305E0809357012CD48F77FFD38093580131D453
S11305F08F73FAD38093590114D46099B4C0809155
S113060000018F5F8F3F09F482C1809300018091C4
S11306105901863008F4AEC0109260011092610155
S113062080916201811110C010928B0010928A0097
S1130630809180008062809380005898C09362010A
S1130640809160018111C1CF80914A01811171C1F2
S11306500091570190915F0186EF800F853008F07B
S1130660FFC080910C01913009F403C1811106C2CD
S11306708091030190910401909302018093010100
S1130680C0935F0120910B018091070190910801B3
S113069000FF8EC1222339F00196909308018093C4
S11306A0070110920B0180319E4009F48EC18091A4
S11306B05F019DED900F953008F0E5C0823009F49C
S11306C0C1C182E080935F011092510110925201E6
S11306D0109253011092540160E060934B016093B7
S11306E04C0160934D0160934E0160934F01609300
S11306F0500180915601882309F45ECF8091550101
S1130700833009F461C208F486C2853009F437C223
S113071008F40EC2863009F006C26091510170914E
S11307205201809153019091540121E231E040E063
S113073050E0B9D3CA01B901A5019401B4D3262F5D
S113074060935001802F612F8ED3921335CF87E0B1
S1130750809355011092510110925201109253014D
S11307601092540129CF10920001809159018630D2
S113077008F052CFC0936101C0904201D090430170
S1130780E0904401F090450120E030E0A901C70168
S1130790B601F2D418168CF42AE037ED43EA5BE391
S11307A0C701B601A2D36B017C01C0924201D09271
S11307B04301E0924401F092450120E030E048EC2E
S11307C052E4C701B601F6D387FF3ACFC093600164
S11307D08BB1817088618BB980916201882359F053
S11307E010928B0010928A00809180008F7D8093FC
S11307F08000109262018091570180FF21CF589AA6
S11308008FE891E00197F1F700C0000058988FE15C
S113081093E00197F1F700C0000012CFC0904201AD
S1130820D0904301E0904401F090450120E030E095
S113083044E353E4C701B601BDD318160CF4C5CE86
S11308402AE037ED43E25CE3C701B6014FD360937E
S11308504201709343018093440190934501B5CEC6
S1130860913029F410925F0173980091570180919F
S11308700C01882309F406CF80915F019DED900F50
S1130880953008F41BCF823009F033CF80915601A4
S1130890811134CF10924C0110924D0110924E01EF
S11308A010924F0110925001109251011092520176
S11308B01092530110925401D0935501D0935601D4
S11308C060915101709152018091530190915401B2
S11308D021E231E040E050E0E6D2CA01B901A501CD
S11308E09401E1D2262F60934B0180915901612F2D
S11308F0BAD2821361CE82E08093550110925101E5
S113090010925201109253011092540155CE10923C
S113091000017FD282EA89D282E087D280E06FD25E
S113092084D280E06CD281D284E169D27ED279D241
S11309306ECE20911101309112014091130150911A
S1130940140160914201709143018091440190919E
S11309504501CBD2AB01BC018EE191E09AD16B0190
S11309607C0120E030E0A90125D387FD7CC023E38E
S113097033E343E35FE3C701B601FED318160CF477
S1130980C3C0C0924601D0924701E0924801F09260
S1130990490120E030E84FEF53E4C701B601F0D33A
S11309A00DD370938B0060938A0010924A0150CE4D
S11309B0211179CE01969093080180930701C09389
S11309C00B0180319E4009F072CE23D280E92DD2F2
S11309D080E02BD21ED281E928D231D28093090142
S11309E038D280930A011DD26091090170910A01E5
S11309F076276727762776956795729562956F7047
S1130A0067277F706727072E000C880B990B04D388
S1130A1020E030E04AEF52E4B3D3D0D27093020125
S1130A20609301012091030130910401C901861BE7
S1130A30970B9093060180930501C0930C010091DC
S1130A40570135CE6091510170915201809153014B
S1130A5090915401A301920126D2CA01B901A501C2
S1130A60940121D23ACE109246011092470110927D
S1130A7048011092490170E060E093CFCAD180E947
S1130A80D4D180E0D2D1C5D181E9CFD1D8D180935E
S1130A900901DFD180930A01C4D1609109017091E9
S1130AA00A0176276727762776956795729562956A
S1130AB06F7067277F706727072E000C880B990BD0
S1130AC0ABD220E030E04AEF52E45AD36B017C0110
S1130AD06091050170910601072E000C880B990B9B
S1130AE09BD29B01AC01C701B60100D267D27093BF
S1130AF002016093010180910C0100915701C093A0
S1130B005F018111B9CEBECD83E393E3A3E3BFE3D9
S1130B108093460190934701A0934801B093490103
S1130B2065E671E03ECF1092560110925F0144CD0C
S1130B30609151017091520180915301909154013F
S1130B4021E231E040E050E0AED1CA01B901A50193
S1130B509401A9D1262F60934E0180915801612FF1
S1130B6082D1921329CD85E08093550110925101D1
S1130B701092520110925301109254011DCD6091B4
S1130B80510170915201809153019091540121E2DD
S1130B9031E040E050E087D1CA01B901A5019401D8
S1130BA082D1262F60934F01802F612F5CD1821355
S1130BB003CD3092550110925101109252011092BE
S1130BC0530110925401F8CC60915101709152017B
S1130BD0809153019091540121E231E040E050E0D2
S1130BE062D1CA01B901A50194015DD1262F609398
S1130BF04D0180915801612F36D18213DDCC84E000
S1130C008093550110925101109252011092530198
S1130C1010925401D1CC813009F452CE823009F0C3
S1130C2082CF609151017091520180915301909152
S1130C30540121E231E040E050E035D1CA01B9016C
S1130C40A501940130D1262F60934C018091590164
S1130C50612F09D19213B0CC83E080935501109297
S1130C605101109252011092530110925401A4CCDC
S1130C70EAE7F0E080818F6A8083ACE7B0E08C9192
S1130C80807F8C938C918F7B8C9380818064808314
S1130C9008954F925F926F927F928F929F92AF923C
S1130CA0BF92CF92DF92EF92FF92CF93DF93EC014A
S1130CB06A017B018C849D84AE84BF842881398140
S1130CC04A815B81CB01B6015BD22B013C012C81B3
S1130CD03D814E815F81C501B40152D29B01AC01BB
S1130CE0C301B20103D12C893D894E895F89FED0AD
S1130CF02B013C01288939894A895B896885798572
S1130D008A859B853DD29B01AC01C301B201EED023
S1130D10888A998AAA8ABB8ACC86DD86EE86FF8673
S1130D206C8B7D8B8E8B9F8BDF91CF91FF90EF909F
S1130D30DF90CF90BF90AF909F908F907F906F90F7
S1130D405F904F9008954F925F926F927F928F922F
S1130D509F92AF92BF92CF92DF92EF92FF92CF9386
S1130D60DF93EC014A015B01488C598C6A8C7B8CC3
S1130D70C8A0D9A0EAA0FBA02C8D3D8D4E8D5F8D1F
S1130D80C301B201B3D0A7019601B0D068837983BF
S1130D908A839B83A7019601C701B601A7D0A3014B
S1130DA09201A4D090586C837D838E839F83C886E0
S1130DB0D986EA86FB8689288A288B2831F02C96E6
S1130DC08CE0FE0111928A95E9F7DF91CF91FF90B3
S1130DD0EF90DF90CF90BF90AF909F908F907F90D7
S1130DE06F905F904F900895282F22952F70922F27
S1130DF0990F990F920F990F8F70890F08956AE0D8
S1130E0032D08295807F892B089588E48093B8003E
S1130E10089584EA8093BC008091BC0087FFFCCFD6
S1130E20089584E98093BC0008958093BB0084E80E
S1130E308093BC008091BC0087FFFCCF089584ECB4
S1130E408093BC008091BC0087FFFCCF8091BB00E5
S1130E50089584E88093BC008091BC0087FFFCCF98
S1130E608091BB000895991B79E004C0991F9617DF
S1130E7008F0961B881F7A95C9F780950895AA1BD8
S1130E80BB1B51E107C0AA1FBB1FA617B70710F071
S1130E90A61BB70B881F991F5A95A9F780959095A3
S1130EA0BC01CD010895A1E21A2EAA1BBB1BFD01B2
S1130EB00DC0AA1FBB1FEE1FFF1FA217B307E40735
S1130EC0F50720F0A21BB30BE40BF50B661F771F8D
S1130ED0881F991F1A9469F760957095809590956D
S1130EE09B01AC01BD01CF0108955058BB27AA272F
S1130EF00ED008C1F9D030F0FED020F031F49F3F7D
S1130F0011F41EF4EEC00EF4E095E7FBE4C0E92F03
S1130F100AD180F3BA17620773078407950718F09C
S1130F2071F49EF522C10EF4E0950B2EBA2FA02D7C
S1130F300B01B90190010C01CA01A0011124FF2782
S1130F40591B99F0593F50F4503E68F11A16F0407D
S1130F50A22F232F342F4427585FF3CF469537957C
S1130F602795A795F0405395C9F77EF41F16BA0B41
S1130F70620B730B840BBAF09150A1F0FF0FBB1FEF
S1130F80661F771F881FC2F70EC0BA0F621F731F38
S1130F90841F48F4879577956795B795F7959E3F95
S1130FA008F0B3CF9395880F08F09927EE0F979523
S1130FB0879508956CD008F481E00895BCD088F03A
S1130FC09F5790F0B92F9927B751A0F0D1F0660F31
S1130FD0771F881F991F1AF0BA95C9F712C0B1304C
S1130FE081F0C3D0B1E00895C0C0672F782F88275F
S1130FF0B85F39F0B93FCCF3869577956795B3958B
S1131000D9F73EF490958095709561957F4F8F4FF9
S11310109F4F0895E89409C097FB3EF490958095FE
S1131020709561957F4F8F4F9F4F9923A9F0F92FAA
S113103096E9BB279395F695879577956795B79528
S1131040F111F8CFFAF4BB0F11F460FF1BC06F5F0E
S11310507F4F8F4F9F4F16C0882311F096E911C020
S1131060772321F09EE8872F762F05C0662371F041
S113107096E8862F70E060E02AF09A95660F771F55
S1131080881FDAF7880F9695879597F90895990F31
S11310900008550FAA0BE0E8FEEF16161706E8073E
S11310A0F907C0F012161306E407F50798F0621B5F
S11310B0730B840B950B39F40A2661F0232B242B34
S11310C0252B21F408950A2609F4A140A6958FEF53
S11310D0811D811D089597F99F6780E870E060E0A5
S11310E008959FEF80EC089500240A9416161706BD
S11310F018060906089500240A9412161306140605
S113110005060895092E0394000C11F4882352F067
S1131110BB0F40F4BF2B11F460FF04C06F5F7F4F1F
S11311208F4F9F4F089557FD9058440F551F59F006
S11311305F3F71F04795880F97FB991F61F09F3FC0
S113114079F087950895121613061406551FF2CFE9
S11311504695F1DF08C0161617061806991FF1CF39
S113116086957105610508940895E894BB27662760
S11311707727CB0197F908958ADF08F48FEF089554
S11311800AD0C0CFB1DF28F0B6DF18F0952309F0FC
S1131190A2CFA7CFEBCFC7DFA8F39923D9F3552369
S11311A0C9F3950F50E0551FAA27EE27FF27BB2749
S11311B000240894679520F4E20FF31FB41F0A1E5D
S11311C0220F331F441FAA1F6695A9F7779530F4A1
S11311D0F30FB41F0A1E121E08F46395330F441F45
S11311E0AA1F221F769599F7879520F4B40F0A1E3B
S11311F0121E631F440FAA1F221F331F8695A9F7CF
S1131200862F712D602D11249F5750408AF0E1F0F4
S113121088234AF0EE0FFF1FBB1F661F771F881F2E
S113122091505040A9F79E3F510570F054CF9ECF86
S11312305F3FECF3983EDCF3869577956795B79519
S1131240F795E7959F5FC1F7FE2B880F911D969543
S10D1250879597F90895F894FFCFED
S9030000FC
