S01200004E69786965436C6F636B2E7372656329
S113000013C022C021C020C01FC01EC01DC01CC000
S11300101BC01AC019C018C0BCC016C015C014C07B
S113002074C112C011C010C011241FBECFEFD2E0A2
S1130030DEBFCDBF21E0A0E0B1E001C01D92A0363B
S1130040B207E1F7EED197C8DBCF9FEF980F963058
S113005038F49BB19F718295880F807E892B8BB970
S113006008958A3028F49BB1917E880F892B8BB92F
S113007008958BB1817088618BB90895CF92DF9216
S1130080EF92FF92CF93DF93FC01208521111CC0D6
S11300908185811119C0EB01CDA8DEA8EFA8F8ACC9
S11300A020E030E044E353E4C701B60113D7181647
S11300B05CF02AE037ED43E25CE3C701B601A6D663
S11300C06DAB7EAB8FAB98AFDF91CF91FF90EF908C
S11300D0DF90CF900895CF92DF92EF92FF92CF936B
S11300E0DF93FC0181858823C1F0EB01CDA8DEA854
S11300F0EFA8F8AC20E030E0A901C701B601CCD7E5
S113010018165CF42AE037ED43EA5BE3C701B60155
S11301107CD66DAB7EAB8FAB98AFDF91CF91FF9068
S1130120EF90DF90CF9008958DB18CE08DB91EB81B
S11301306898709A229A15B88AB18FEF8AB91BB859
S113014008958823C1F08130A9F4809180008260F1
S113015080938000809180008062809380008091F1
S11301608100816080938100809181008860809308
S113017081000895089585B5836085BD85B588603F
S113018085BD80916E00826080936E008CEA87BD8D
S113019008951F920F920FB60F9211242F933F933D
S11301A04F935F936F937F938F939F93AF93BF937B
S11301B0EF93FF9380915D01811127C080915B01D2
S11301C090915C01913091F108F444C0923009F4AB
S11301D041C08F5F8D3008F081E080935B01809196
S11301E04B0190914C01A0914D01B0914E010196AB
S11301F0A11DB11D80934B0190934C01A0934D011F
S1130200B0934E0181E080934A01FF91EF91BF9139
S1130210AF919F918F917F916F915F914F913F919A
S11302202F910F900FBE0F901F901895EFEFE80FCE
S1130230EC3078F6F0E0E25EFE4F099424C01FC073
S11302401EC03AC01CC01BC02EC019C018C023C099
S113025016C015C0EFEFE80FEC3008F0BACFF0E0AD
S1130260ED5CFE4F099449C00AC03FC008C00BC0F2
S113027006C033C004C029C002C00DC000C0F9DEEE
S113028080915B01A6CF83E0E0DE80915701E9DE37
S113029080915B019ECF86E0D8DE80915A01E1DE39
S11302A080915B0196CF85E0D0DE80915901D9DE43
S11302B0739880915B018DCF84E0C7DE80915801F3
S11302C0D0DE739A80915B0184CF85E0BEDE80919D
S11302D05901C7DE80915B017CCF84E0B6DE80915A
S11302E05801BFDE80915B0174CF82E0AEDE809165
S11302F05601B7DE80915B016CCF81E0A6DE809170
S11303005501AFDE80915B0164CF1F920F920FB64F
S11303100F9211242F933F934F935F936F937F9387
S11303208F939F93AF93BF93EF93FF9380911D019E
S113033021E0280F20931D016091190170911A0189
S113034080911B0190911C012531B0F5209178001A
S113035030917900AB01BC01420F531F611D711D27
S11303604093190150931A0160931B0170931C016F
S11303706091110170911201809113019091140107
S113038020E030E048E453E487D6181624F41092B1
S11303908B0010928A00FF91EF91BF91AF919F91D2
S11303A08F917F916F915F914F913F912F910F901A
S11303B00FBE0F901F90189524E130E040E050E00C
S11303C002D5CA01B901B6D560931501709316011F
S11303D080931701909318012DEC3CEC4CE85AE300
S11303E05FD660930D0170930E0180930F0190937B
S11303F0100120E030E043E553E452D6609311014C
S113040070931201809313019093140110921901B7
S113041010921A0110921B0110921C0110921D01DE
S1130420AFCF8AE097EDA3E2BCE3809336019093CB
S11304303701A0933801B093390187E197EBA1E527
S1130440B8E380933A0190933B01A0933C01B093AD
S11304503D0110923E0110923F0110924001109212
S1130460410141E050E060E070E08EE191E0FBD3B7
S11304705BDE80E066DE81E064DE8AD356D4789465
S11304802FEF83ED90E3215080409040E1F700C0CE
S113049000004FD482EA59D48DE057D480E055D47B
S11304A050D447D480E951D480E04FD442D481E978
S11304B04CD455D4809309015CD480930A0141D46F
S11304C06091090170910A0176276727762776954E
S11304D06795729562956F7067277F706727072EFF
S11304E0000C880B990B28D520E030E04AEF52E449
S11304F0D7D5F4D47093040160930301709302017F
S113050060930101C1E03AE0832E912CA12CB12C1F
S113051049E6442E55245394612C712C50E1252E28
S113052057E2352E0AE010E06DE071E085E591E0D8
S1130530A5DDFFD382EA09D482E007D4FAD383EAA3
S113054004D40DD48F77E0D38093510108D48F77EE
S1130550DBD3809352010DD48F73D6D38093530190
S1130560F0D36099B4C0809100018F5F8F3F09F48C
S113057027C18093000180910C01811117C0209143
S11305800B0180910701909108013091510130FFD6
S1130590CFC0222339F0019690930801809307017C
S11305A010920B0180319E4009F4CFC08091530119
S11305B0863008F48FC010925D0110925E01809124
S11305C05F01811110C010928B0010928A008091FB
S11305D080008062809380005898C0935F0180916E
S11305E05D018111A1CF80914A01811132C18091B5
S11305F05C01D091510126EF2D0F8111F3C0809140
S113060053016AE0C0D380935501909356018091C1
S11306105201B9D380935701909358018D2FB3D3CE
S11306208093590190935A01253008F4E1C08DED6F
S11306308D0F853008F078CF82E080935C011092B2
S11306404B0110924C0110924D0110924E0160E04A
S1130650609355016093560160935701609358016C
S11306606093590160935A0180915001882309F4E1
S11306705BCF80914F01833009F436C208F45BC22A
S1130680853009F40BC208F4E2C1863009F04CCF7E
S113069060914B0170914C0180914D0190914E01FC
S11306A021E231E040E050E08ED3CA01B901A50156
S11306B0940189D3262F60935A018D2F6AE063D366
S11306C0921332CF1092500110925C012DCF1092F0
S11306D0000151CFC0935E016DE071E085E591E0CA
S11306E0FADC20E030E048EC52E460914201709181
S11306F043018091440190914501ECD387FF6FCF72
S1130700C0935D01B6DC80915F01882359F010929B
S11307108B0010928A00809180008F7D80938000EE
S113072010925F018091510180FF91C0589A57CF78
S1130730211138CF01969093080180930701C0934B
S11307400B0180319E4009F031CFF3D280E9FDD214
S113075080E0FBD2EED281E9F8D201D38093090183
S113076008D380930A01EDD26091090170910A01C6
S113077076276727762776956795729562956F70C9
S113078067277F706727072E000C880B990BD4D33B
S113079020E030E04AEF52E483D4A0D37093020106
S11307A0609301012091030130910401C901861B6A
S11307B0970B9093060180930501C0930C01F6CE2C
S11307C010920001B6D282EAC0D282E0BED280E0AA
S11307D0A6D2BBD280E0A3D2B8D284E1A0D2B5D253
S11307E0B0D2C9CE253008F073C0813009F49CCE54
S11307F080910C0120910101309102018111D7C037
S1130800C901B101CCD260935701C90168EE73E00C
S1130810C6D2CB01B801C3D280935801C90164E6A2
S113082070E0BDD2CB01B801BAD280935901C9019D
S1130830B801B5D2CB01B801B2D280935A01C093AA
S11308405C018DED8D0F853008F4F6CE6DCE589891
S1130850C6CE2091110130911201409113015091A3
S1130860140160914201709143018091440190917F
S11308704501CBD2AB01BC018EE191E09AD16B0171
S11308807C0120E030E0A90125D387FD85C023E366
S113089033E343E35FE3C701B601FED318160CF458
S11308A0C7C0C0924601D0924701E0924801F0923D
S11308B0490120E030E84FEF53E4C701B601F0D31B
S11308C00DD370938B0060938A0010924A018FCEEF
S11308D0813031F410925C017398D091510180E021
S11308E09DED9D0F9530A0F4823009F0A5CE609166
S11308F04B0170914C0180914D0190914E01A301E7
S1130900920161D2CA01B901A50194015CD2A0CEC1
S1130910823009F009CE809150018111AACE109243
S113092056011092570110925801109259011092D9
S11309305A0110924B0110924C0110924D011092E9
S11309404E01C0934F01C093500160914B017091CF
S11309504C0180914D0190914E0121E231E040E043
S113096050E031D2CA01B901A50194012CD2262F3D
S113097060935501809153016AE005D28213D4CD6E
S113098082E080934F0110924B0110924C0110921F
S11309904D0110924E01C8CD1092460110924701AC
S11309A0109248011092490170E060E08ACFC1D1F1
S11309B080E9CBD180E0C9D1BCD181E9C6D1CFD106
S11309C080930901D6D180930A01BBD160910901BA
S11309D070910A0176276727762776956795729531
S11309E062956F7067277F706727072E000C880B4E
S11309F0990BA2D220E030E04AEF52E451D36B01CC
S1130A007C016091050170910601072E000C880B92
S1130A10990B92D29B01AC01C701B601F7D15ED20A
S1130A209B017093020160930101D0915101E8CEC2
S1130A3083E393E3A3E3BFE38093460190934701E9
S1130A40A0934801B093490165E671E03ACF609103
S1130A504B0170914C0180914D0190914E0121E226
S1130A6031E040E050E0AFD1CA01B901A5019401E1
S1130A70AAD1262F60935801809152016AE083D154
S1130A80921352CD85E080934F0110924B01109246
S1130A904C0110924D0110924E0146CD60914B01D4
S1130AA070914C0180914D0190914E0121E231E011
S1130AB040E050E088D1CA01B901A501940183D175
S1130AC0262F609359018D2F6AE05DD182132CCDBE
S1130AD086E080934F0110924B0110924C011092CA
S1130AE04D0110924E0120CD60914B0170914C014B
S1130AF080914D0190914E0121E231E040E050E0BF
S1130B0062D1CA01B901A50194015DD1262F609378
S1130B105701809152016AE036D1821305CD84E0F9
S1130B2080934F0110924B0110924C0110924D0191
S1130B3010924E01F9CC813009F407CF823009F0CC
S1130B40F3CC60914B0170914C0180914D019091D7
S1130B504E0121E231E040E050E035D1CA01B90153
S1130B60A501940130D1262F609356018091530141
S1130B706AE009D19213D8CC83E080934F0110929C
S1130B804B0110924C0110924D0110924E01CCCCAD
S1130B90EAE7F0E080818F6A8083ACE7B0E08C9173
S1130BA0807F8C938C918F7B8C93808180648083F5
S1130BB008954F925F926F927F928F929F92AF921D
S1130BC0BF92CF92DF92EF92FF92CF93DF93EC012B
S1130BD06A017B018C849D84AE84BF842881398121
S1130BE04A815B81CB01B6015BD22B013C012C8194
S1130BF03D814E815F81C501B40152D29B01AC019C
S1130C00C301B20103D12C893D894E895F89FED08D
S1130C102B013C01288939894A895B896885798552
S1130C208A859B853DD29B01AC01C301B201EED004
S1130C30888A998AAA8ABB8ACC86DD86EE86FF8654
S1130C406C8B7D8B8E8B9F8BDF91CF91FF90EF9080
S1130C50DF90CF90BF90AF909F908F907F906F90D8
S1130C605F904F9008954F925F926F927F928F9210
S1130C709F92AF92BF92CF92DF92EF92FF92CF9367
S1130C80DF93EC014A015B01488C598C6A8C7B8CA4
S1130C90C8A0D9A0EAA0FBA02C8D3D8D4E8D5F8D00
S1130CA0C301B201B3D0A7019601B0D068837983A0
S1130CB08A839B83A7019601C701B601A7D0A3012C
S1130CC09201A4D090586C837D838E839F83C886C1
S1130CD0D986EA86FB8689288A288B2831F02C96C7
S1130CE08CE0FE0111928A95E9F7DF91CF91FF9094
S1130CF0EF90DF90CF90BF90AF909F908F907F90B8
S1130D006F905F904F900895282F22952F70922F07
S1130D10990F990F920F990F8F70890F08956AE0B8
S1130D2032D08295807F892B089588E48093B8001F
S1130D30089584EA8093BC008091BC0087FFFCCFB7
S1130D40089584E98093BC0008958093BB0084E8EF
S1130D508093BC008091BC0087FFFCCF089584EC95
S1130D608093BC008091BC0087FFFCCF8091BB00C6
S1130D70089584E88093BC008091BC0087FFFCCF79
S1130D808091BB000895991B79E004C0991F9617C0
S1130D9008F0961B881F7A95C9F780950895AA1BB9
S1130DA0BB1B51E107C0AA1FBB1FA617B70710F052
S1130DB0A61BB70B881F991F5A95A9F78095909584
S1130DC0BC01CD010895A1E21A2EAA1BBB1BFD0193
S1130DD00DC0AA1FBB1FEE1FFF1FA217B307E40716
S1130DE0F50720F0A21BB30BE40BF50B661F771F6E
S1130DF0881F991F1A9469F760957095809590954E
S1130E009B01AC01BD01CF0108955058BB27AA270F
S1130E100ED008C1F9D030F0FED020F031F49F3F5D
S1130E2011F41EF4EEC00EF4E095E7FBE4C0E92FE4
S1130E300AD180F3BA17620773078407950718F07D
S1130E4071F49EF522C10EF4E0950B2EBA2FA02D5D
S1130E500B01B90190010C01CA01A0011124FF2763
S1130E60591B99F0593F50F4503E68F11A16F0405E
S1130E70A22F232F342F4427585FF3CF469537955D
S1130E802795A795F0405395C9F77EF41F16BA0B22
S1130E90620B730B840BBAF09150A1F0FF0FBB1FD0
S1130EA0661F771F881FC2F70EC0BA0F621F731F19
S1130EB0841F48F4879577956795B795F7959E3F76
S1130EC008F0B3CF9395880F08F09927EE0F979504
S1130ED0879508956CD008F481E00895BCD088F01B
S1130EE09F5790F0B92F9927B751A0F0D1F0660F12
S1130EF0771F881F991F1AF0BA95C9F712C0B1302D
S1130F0081F0C3D0B1E00895C0C0672F782F88273F
S1130F10B85F39F0B93FCCF3869577956795B3956B
S1130F20D9F73EF490958095709561957F4F8F4FDA
S1130F309F4F0895E89409C097FB3EF490958095DF
S1130F40709561957F4F8F4F9F4F9923A9F0F92F8B
S1130F5096E9BB279395F695879577956795B79509
S1130F60F111F8CFFAF4BB0F11F460FF1BC06F5FEF
S1130F707F4F8F4F9F4F16C0882311F096E911C001
S1130F80772321F09EE8872F762F05C0662371F022
S1130F9096E8862F70E060E02AF09A95660F771F36
S1130FA0881FDAF7880F9695879597F90895990F12
S1130FB00008550FAA0BE0E8FEEF16161706E8071F
S1130FC0F907C0F012161306E407F50798F0621B40
S1130FD0730B840B950B39F40A2661F0232B242B15
S1130FE0252B21F408950A2609F4A140A6958FEF34
S1130FF0811D811D089597F99F6780E870E060E086
S113100008959FEF80EC089500240A94161617069D
S113101018060906089500240A94121613061406E5
S113102005060895092E0394000C11F4882352F048
S1131030BB0F40F4BF2B11F460FF04C06F5F7F4F00
S11310408F4F9F4F089557FD9058440F551F59F0E7
S11310505F3F71F04795880F97FB991F61F09F3FA1
S113106079F087950895121613061406551FF2CFCA
S11310704695F1DF08C0161617061806991FF1CF1A
S113108086957105610508940895E894BB27662741
S11310907727CB0197F908958ADF08F48FEF089535
S11310A00AD0C0CFB1DF28F0B6DF18F0952309F0DD
S11310B0A2CFA7CFEBCFC7DFA8F39923D9F355234A
S11310C0C9F3950F50E0551FAA27EE27FF27BB272A
S11310D000240894679520F4E20FF31FB41F0A1E3E
S11310E0220F331F441FAA1F6695A9F7779530F482
S11310F0F30FB41F0A1E121E08F46395330F441F26
S1131100AA1F221F769599F7879520F4B40F0A1E1B
S1131110121E631F440FAA1F221F331F8695A9F7AF
S1131120862F712D602D11249F5750408AF0E1F0D5
S113113088234AF0EE0FFF1FBB1F661F771F881F0F
S113114091505040A9F79E3F510570F054CF9ECF67
S11311505F3FECF3983EDCF3869577956795B795FA
S1131160F795E7959F5FC1F7FE2B880F911D969524
S10D1170879597F90895F894FFCFCE
S9030000FC
