:1000000013C022C021C020C01FC01EC01DC01CC004
:100010001BC01AC019C018C025C016C015C014C016
:100020008CC112C011C010C011241FBECFEFD2E08E
:10003000DEBFCDBF21E0A0E0B1E001C01D92A1363E
:10004000B207E1F706D27DC8DBCF8DB18CE08DB968
:100050001EB86898709A229A15B88AB18EEF8AB93C
:100060001BB808951F920F920FB60F9211242F9371
:100070005F936F937F938F939F93AF93BF93CF9330
:10008000DF93EF93FF9380915E01811130C08091E7
:100090005D0120915C01811114C0EFEFE20FEC30A3
:1000A000A8F4F0E0EB5AFF4F0994AFC048C099C0E4
:1000B00046C073C044C062C042C081C040C09BC043
:1000C0003EC0813049F1823009F43EC02F5F2D30AF
:1000D000F8F420935C0180915101909152010196B6
:1000E000909352018093510181E080934A01FF91E6
:1000F000EF91DF91CF91BF91AF919F918F917F91C0
:100100006F915F912F910F900FBE0F901F901895D8
:1001100081E080935C01DFCFEFEFE20FEB30B0F6D0
:10012000F0E0EC56FF4F0994A2C009C0CFCF7FC0CA
:1001300006C0CCCF91C003C0C9CF84C000C08BB172
:10014000817088618BB9C2CFEFEFE20FEC3008F01D
:10015000BDCFF0E0E255FF4F8BB10994D7C00AC084
:10016000C3C008C0AFC006C0A4C004C0B4C002C0B1
:10017000C4C000C0817088618BB9A8CF8BB18F716A
:1001800080688BB9809159018A3008F09FCF9BB16C
:10019000917E880F892B8BB999CF809156016AE0A7
:1001A000D8D580935801909359018BB18F71806697
:1001B0008BB9809158018A3008F088CFE8CF8091C0
:1001C00055016AE0C6D580935801909359018BB1CF
:1001D0008F71806A8BB9809158018A3008F076CF90
:1001E000D6CF8BB18F7180648BB9809159018A30E1
:1001F00008F06CCFCCCF8BB18F71806C8BB98091B4
:1002000059018A3008F062CFC2CF809157016AE06D
:10021000A0D580935801909359018BB18F71806262
:100220008BB9809158018A3008F050CFB0CF8BB194
:100230008F7180688BB9809159018A3008F476C03B
:10024000739A44CF8BB18F71806C8BB980915B01B5
:100250008A3008F03BCF9BCF8BB18F71806A8BB90E
:1002600080915A018A3008F45AC073982FCFE091D8
:100270000101F0910201CF0160E177E276D5609350
:100280005801C8EED3E0BE0170D560935901CF018B
:10029000BE016BD5C4E6D0E0BE0167D560935A01BC
:1002A000CF01BE0162D56AE070E05FD560935B016B
:1002B0007CCF8F7180688BB980914E018A3008F0B5
:1002C00005CF65CF8F7180668BB980914D018A30E3
:1002D00008F0FCCE5CCF8F71806A8BB980914F01A2
:1002E0008A3008F0F3CE53CF8F7180648BB9809140
:1002F0004C018A3008F0EACE4ACF8F71806C8BB9FE
:10030000809150018A3008F0E1CE41CF8F71806238
:100310008BB980914B018A3008F0D8CE38CF9BB191
:10032000917E880F892B8BB97398D0CE9BB1917E2B
:10033000880F892B8BB9739AC9CE1F920F920FB673
:100340000F9211242F933F934F935F936F937F935B
:100350008F939F93AF93BF93EF93FF93E0911D0112
:100360006091190170911A0180911B0190911C01FB
:10037000E431D0F52091780030917900AB01BC01D7
:10038000420F531F611D711D4093190150931A01B3
:1003900060931B0170931C0181E08E0F80931D01FF
:1003A00060911101709112018091130190911401DB
:1003B00020E030E048E453E455D6181624F41092B7
:1003C0008B0010928A00FF91EF91BF91AF919F91A6
:1003D0008F917F916F915F914F913F912F910F90EE
:1003E0000FBE0F901F90189524E130E040E050E0E0
:1003F000D0D4CA01B90184D5609315017093160158
:10040000809317019093180129E030EF4CE85AE3EC
:100410002DD660930D0170930E0180930F01909380
:10042000100120E030E043E553E420D66093110151
:10043000709312018093130190931401109219018B
:1004400010921A0110921B0110921C0110921D01B2
:10045000AFCF8AE097EDA3E2BCE38093360190939F
:100460003701A0933801B093390187E197EBA1E5FB
:10047000B8E380933A0190933B01A0933C01B09381
:100480003D0110923E0110923F01109240011092E6
:10049000410141E050E060E070E08EE191E0C9D3BD
:1004A000D4DD85B5836085BD85B5886085BD8091C7
:1004B0006E00826080936E008CEA87BD8091800020
:1004C00082608093800080918000806280938000B1
:1004D000809181008160809381008091810088609B
:1004E000809381003BD307D478942FEF33ED80E3E2
:1004F000215030408040E1F700C0000000D480E986
:100500000AD480E008D4FBD381E905D40ED48093CB
:10051000090115D480930A01FAD360910901709101
:100520000A017627672776277695679572956295F3
:100530006F7067277F706727072E000C880B990B59
:10054000E1D420E030E04AEF52E490D5ADD470938E
:100550000401609303019924939401E211E0CAE03D
:10056000D0E03AE0832E44E0542E56E0652E65E05C
:10057000762E73E0472EE9E6AE2EBB24B39480912D
:100580005E01811105C080915F01882309F414C1C7
:10059000B6D382EAC0D382E0BED3B1D383EABBD361
:1005A000C4D38F7797D380935501BFD38F7792D3DE
:1005B00080935601C4D38F738DD380935701A7D3F3
:1005C00060999FC0809100018F5F8F3F09F45AC1ED
:1005D0008093000180915701863008F499C01092F1
:1005E0005E0110925F018091600181110FC0109235
:1005F0008B0010928A00809180008062809380003E
:100600009092600180915E018111C2CF80914A0178
:1006100081114AC12091550190915D0186EF820FB1
:10062000853008F0EBC080910C01913009F4EFC0E7
:1006300090925D018111F5C18091030190910401B7
:10064000909302018093010130910B018091070189
:100650009091080120FF67C1332339F001969093F0
:1006600008018093070110920B0180319E4009F42C
:1006700067C1309154018DED820F853008F0D1C0F3
:1006800080915D01823009F498C182E080935D0120
:10069000109252011092510180E080934B0180939F
:1006A0004C0180934D0180934E0180934F018093C4
:1006B0005001332309F463CF80915301833009F44F
:1006C0001CC208F48FC1853009F430C208F4FCC1A3
:1006D000863009F054CF8091510190915201B801B8
:1006E00044D3CB01BE0141D3382F80935001822FD8
:1006F000682D2FD3931343CF1092540110925D01B4
:100700003ECF1092000180915701863008F067CFEC
:1007100090925F01C0904201D0904301E09044016B
:10072000F090450120E030E0A901C701B6019AD45C
:1007300018168CF42AE037ED43EA5BE3C701B601F3
:100740004AD36B017C01C0924201D0924301E092F6
:100750004401F092450120E030E048EC52E4C7014A
:10076000B6019ED387FF4ECF90925E018BB1817010
:1007700088618BB980916001882359F010928B00B9
:1007800010928A00809180008F7D8093800010926B
:1007900060018091550180FF35CF589A8FE891E034
:1007A0000197F1F700C0000058988FE193E001979E
:1007B000F1F700C0000026CFC0904201D090430165
:1007C000E0904401F090450120E030E044E353E440
:1007D000C701B60165D318160CF4DACE2AE037ED5E
:1007E00043E25CE3C701B601F7D260934201709324
:1007F00043018093440190934501CACE913029F47E
:1008000010925D0173982091550180910C0188230D
:1008100009F41ACF309154018DED820F853008F420
:100820002FCF283209F045CF311146CF10924C011D
:1008300010924D0110924E0110924F0110925001F2
:1008400010925201109251019092530190925401D2
:100850008091510190915201B80187D2CB01BE0124
:1008600084D2282F80934B0180915701682D71D23B
:10087000821385CE82E08093530110925201109230
:1008800051017DCE109200013AD282EA44D282E038
:1008900042D280E02AD23FD280E027D23CD284E10B
:1008A00024D239D234D296CE209111013091120146
:1008B00040911301509114016091420170914301E4
:1008C000809144019091450186D2AB01BC018EE13B
:1008D00091E055D16B017C0120E030E0A901E0D22C
:1008E00087FD75C023E333E343E35FE3C701B6014C
:1008F000B9D318160CF4D9C0C0924601D092470162
:10090000E0924801F092490120E030E84FEF53E4D3
:10091000C701B601ABD3C8D270938B0060938A0035
:1009200010924A0177CE3111A0CE01969093080122
:100930008093070190920B0180319E4009F099CE7F
:10094000DED180E9E8D180E0E6D1D9D181E9E3D1F7
:10095000ECD180930901F3D180930A01D8D1609141
:10096000090170910A0176276727762776956795A2
:10097000729562956F7067277F706727072E000C4E
:10098000880B990BBFD220E030E04AEF52E46ED3DF
:100990008BD2709302016093010120910301309189
:1009A0000401C901861B970B9093060180930501F2
:1009B00090920C01209155015CCE80915101909153
:1009C0005201B501D2D1CB01BE01CFD166CE10927A
:1009D000460110924701109248011092490170E0BF
:1009E00060E09ACF813009F433CF823009F0C7CD6F
:1009F0008091510190915201B801B7D1CB01BE0154
:100A0000B4D1282F80934C0180915701682DA1D13A
:100A10009213B5CD409253011092520110925101A0
:100A2000AECD6DD180E977D180E075D168D181E913
:100A300072D17BD18093090182D180930A0167D161
:100A40006091090170910A017627672776277695CC
:100A50006795729562956F7067277F706727072E7D
:100A6000000C880B990B4ED220E030E04AEF52E4A4
:100A7000FDD26B017C016091050170910601072E8A
:100A8000000C880B990B3ED29B01AC01C701B6014B
:100A9000A3D10AD270930201609301012091550104
:100AA00080910C018111B6CECFCD83E393E3A3E314
:100AB000BFE38093460190934701A0934801B09310
:100AC000490165E671E028CF809151019091520172
:100AD000B8014BD1CB01BE0148D1282F80934E01E4
:100AE00080915601682D35D1921349CD70925301F2
:100AF000109252011092510142CD8091510190917A
:100B00005201B80132D1CB01BE012FD1282F8093E1
:100B10004D0180915601682D1CD1821330CD509229
:100B20005301109252011092510129CD809151012F
:100B300090915201B80119D1CB01BE0116D1382FC5
:100B400080934F01822F682D04D1831318CD6092BA
:100B50005301109252011092510111CDEAE7F0E0D9
:100B600080818F6A8083ACE7B0E08C91807F8C932A
:100B70008C918F7B8C9380818064808308954F92C9
:100B80005F926F927F928F929F92AF92BF92CF921D
:100B9000DF92EF92FF92CF93DF93EC016A017B012A
:100BA0008C849D84AE84BF84288139814A815B8195
:100BB000CB01B6015BD22B013C012C813D814E81E2
:100BC0005F81C501B40152D29B01AC01C301B201E6
:100BD00003D12C893D894E895F89FED02B013C01D0
:100BE000288939894A895B89688579858A859B85C1
:100BF0003DD29B01AC01C301B201EED0888A998A33
:100C0000AA8ABB8ACC86DD86EE86FF866C8B7D8BBE
:100C10008E8B9F8BDF91CF91FF90EF90DF90CF90E5
:100C2000BF90AF909F908F907F906F905F904F900C
:100C300008954F925F926F927F928F929F92AF92A0
:100C4000BF92CF92DF92EF92FF92CF93DF93EC01AE
:100C50004A015B01488C598C6A8C7B8CC8A0D9A056
:100C6000EAA0FBA02C8D3D8D4E8D5F8DC301B2019E
:100C7000B3D0A7019601B0D0688379838A839B8320
:100C8000A7019601C701B601A7D0A3019201A4D084
:100C900090586C837D838E839F83C886D986EA862D
:100CA000FB8689288A288B2831F02C968CE0FE015F
:100CB00011928A95E9F7DF91CF91FF90EF90DF9045
:100CC000CF90BF90AF909F908F907F906F905F90EC
:100CD0004F900895282F22952F70922F990F990FDA
:100CE000920F990F8F70890F08956AE032D0829524
:100CF000807F892B089588E48093B800089584EA62
:100D00008093BC008091BC0087FFFCCF089584E9EC
:100D10008093BC0008958093BB0084E88093BC005E
:100D20008091BC0087FFFCCF089584EC8093BC00C9
:100D30008091BC0087FFFCCF8091BB00089584E8C0
:100D40008093BC008091BC0087FFFCCF8091BB00EA
:100D50000895991B79E004C0991F961708F0961B17
:100D6000881F7A95C9F780950895AA1BBB1B51E18E
:100D700007C0AA1FBB1FA617B70710F0A61BB70B0B
:100D8000881F991F5A95A9F780959095BC01CD01B0
:100D90000895A1E21A2EAA1BBB1BFD010DC0AA1FBC
:100DA000BB1FEE1FFF1FA217B307E407F50720F0D4
:100DB000A21BB30BE40BF50B661F771F881F991F4F
:100DC0001A9469F760957095809590959B01AC0198
:100DD000BD01CF0108955058BB27AA270ED008C1E6
:100DE000F9D030F0FED020F031F49F3F11F41EF422
:100DF000EEC00EF4E095E7FBE4C0E92F0AD180F3E2
:100E0000BA17620773078407950718F071F49EF507
:100E100022C10EF4E0950B2EBA2FA02D0B01B901C3
:100E200090010C01CA01A0011124FF27591B99F060
:100E3000593F50F4503E68F11A16F040A22F232F6C
:100E4000342F4427585FF3CF469537952795A795BC
:100E5000F0405395C9F77EF41F16BA0B620B730B63
:100E6000840BBAF09150A1F0FF0FBB1F661F771FD4
:100E7000881FC2F70EC0BA0F621F731F841F48F489
:100E8000879577956795B795F7959E3F08F0B3CF0F
:100E90009395880F08F09927EE0F979587950895F9
:100EA0006CD008F481E00895BCD088F09F5790F092
:100EB000B92F9927B751A0F0D1F0660F771F881F7F
:100EC000991F1AF0BA95C9F712C0B13081F0C3D09A
:100ED000B1E00895C0C0672F782F8827B85F39F038
:100EE000B93FCCF3869577956795B395D9F73EF4DE
:100EF00090958095709561957F4F8F4F9F4F089586
:100F0000E89409C097FB3EF49095809570956195A3
:100F10007F4F8F4F9F4F9923A9F0F92F96E9BB2759
:100F20009395F695879577956795B795F111F8CFD5
:100F3000FAF4BB0F11F460FF1BC06F5F7F4F8F4F40
:100F40009F4F16C0882311F096E911C0772321F036
:100F50009EE8872F762F05C0662371F096E8862FCE
:100F600070E060E02AF09A95660F771F881FDAF725
:100F7000880F9695879597F90895990F0008550F52
:100F8000AA0BE0E8FEEF16161706E807F907C0F00F
:100F900012161306E407F50798F0621B730B840B17
:100FA000950B39F40A2661F0232B242B252B21F4F1
:100FB00008950A2609F4A140A6958FEF811D811D91
:100FC000089597F99F6780E870E060E008959FEFCB
:100FD00080EC089500240A941616170618060906D0
:100FE000089500240A94121613061406050608959F
:100FF000092E0394000C11F4882352F0BB0F40F427
:10100000BF2B11F460FF04C06F5F7F4F8F4F9F4F66
:10101000089557FD9058440F551F59F05F3F71F0E8
:101020004795880F97FB991F61F09F3F79F087954F
:101030000895121613061406551FF2CF4695F1DFD8
:1010400008C0161617061806991FF1CF8695710568
:10105000610508940895E894BB2766277727CB019C
:1010600097F908958ADF08F48FEF08950AD0C0CF6A
:10107000B1DF28F0B6DF18F0952309F0A2CFA7CF93
:10108000EBCFC7DFA8F39923D9F35523C9F3950F05
:1010900050E0551FAA27EE27FF27BB2700240894FE
:1010A000679520F4E20FF31FB41F0A1E220F331FAF
:1010B000441FAA1F6695A9F7779530F4F30FB41F64
:1010C0000A1E121E08F46395330F441FAA1F221F25
:1010D000769599F7879520F4B40F0A1E121E631FA8
:1010E000440FAA1F221F331F8695A9F7862F712D43
:1010F000602D11249F5750408AF0E1F088234AF078
:10110000EE0FFF1FBB1F661F771F881F91505040B7
:10111000A9F79E3F510570F054CF9ECF5F3FECF38F
:10112000983EDCF3869577956795B795F795E795A3
:101130009F5FC1F7FE2B880F911D9695879597F9B4
:061140000895F894FFCFB2
:00000001FF
