:1000000013C022C021C020C01FC01EC01DC01CC004
:100010001BC01AC019C018C0D9C016C015C014C062
:1000200091C112C011C010C011241FBECFEFD2E089
:10003000DEBFCDBF21E0A0E0B1E001C01D92A0363F
:10004000B207E1F7FED1B4C8DBCF9FEF980F96302F
:1000500038F49BB19F718295880F807E892B8BB974
:1000600008958A3028F49BB1917E880F892B8BB933
:1000700008958BB1817088618BB90895CF92DF921A
:10008000EF92FF92CF93DF93FC01208521111CC0DA
:100090008185811119C0EB01CDA8DEA8EFA8F8ACCD
:1000A00020E030E044E353E4C701B60130D718162E
:1000B0005CF02AE037ED43E25CE3C701B601C3D64A
:1000C0006DAB7EAB8FAB98AFDF91CF91FF90EF9090
:1000D000DF90CF900895CF92DF92EF92FF92CF936F
:1000E000DF93FC0181858823C1F0EB01CDA8DEA858
:1000F000EFA8F8AC20E030E0A901C701B601E9D7CC
:1001000018165CF42AE037ED43EA5BE3C701B60159
:1001100099D66DAB7EAB8FAB98AFDF91CF91FF904F
:10012000EF90DF90CF9008958DB18CE08DB91EB81F
:100130006898709A229A15B88AB18FEF8AB91BB85D
:100140000895ECE7F0E08081807F808380818F7D5F
:10015000808380818F7B8083EAE7F0E08081876005
:1001600080838081886080838081806280838081B9
:100170008068808380818064808308958823C1F0B3
:100180008130A9F48091800082608093800080910A
:1001900080008062809380008091810081608093E4
:1001A0008100809181008860809381000895089586
:1001B00085B5836085BD85B5886085BD80916E00FD
:1001C000826080936E008CEA87BD08951F920F9223
:1001D0000FB60F9211242F933F934F935F936F931A
:1001E0007F938F939F93AF93BF93EF93FF938091F0
:1001F0005D01811127C080915B0190915C0191307C
:1002000091F108F444C0923009F441C08F5F8D3001
:1002100008F081E080935B0180914B0190914C014B
:10022000A0914D01B0914E010196A11DB11D809389
:100230004B0190934C01A0934D01B0934E0181E08E
:1002400080934A01FF91EF91BF91AF919F918F9160
:100250007F916F915F914F913F912F910F900FBEC2
:100260000F901F901895EFEFE80FEC3078F6F0E064
:10027000E55CFE4F099424C01FC01EC03AC01CC0DC
:100280001BC02EC019C018C023C016C015C0EFEF88
:10029000E80FEC3008F0BACFF0E0E05BFE4F0994D5
:1002A00049C00AC03FC008C00BC006C033C004C06C
:1002B00029C002C00DC000C0DCDE80915B01A6CF6A
:1002C00083E0C3DE80915701CCDE80915B019ECF3D
:1002D00086E0BBDE80915A01C4DE80915B0196CF3F
:1002E00085E0B3DE80915901BCDE739880915B019B
:1002F0008DCF84E0AADE80915801B3DE739A80919D
:100300005B0184CF85E0A1DE80915901AADE809156
:100310005B017CCF84E099DE80915801A2DE809160
:100320005B0174CF82E091DE809156019ADE80916C
:100330005B016CCF81E089DE8091550192DE809176
:100340005B0164CF1F920F920FB60F9211242F936F
:100350003F934F935F936F937F938F939F93AF934D
:10036000BF93EF93FF9380911D0121E0280F20930D
:100370001D016091190170911A0180911B019091EA
:100380001C01253608F44AC024E630E040E050E085
:1003900037D5CA01B901EBD56093150170931601E9
:1003A00080931701909318012DEC3CEC4CE85AE334
:1003B00094D660930D0170930E0180930F0190937A
:1003C00010012AE732E948E553E487D62AE433ED01
:1003D00049E85FE338D5609311017093120180936F
:1003E0001301909314011092190110921A011092A6
:1003F0001B0110921C0110921D01FF91EF91BF9102
:10040000AF919F918F917F916F915F914F913F91AC
:100410002F910F900FBE0F901F901895209178008C
:1004200030917900AB01BC01420F531F611D711D5A
:100430004093190150931A0160931B0170931C01A2
:10044000DCCF8AE097EDA3E2BCE380933601909382
:100450003701A0933801B093390187E197EBA1E50B
:10046000B8E380933A0190933B01A0933C01B09391
:100470003D0110923E0110923F01109240011092F6
:10048000410141E050E060E070E08EE191E008D48D
:100490004BDE80E073DE81E071DE53DE63D4589A78
:1004A0002FEF37EA81E6215030408040E1F700C06D
:1004B0000000589878945AD482EA64D48DE062D4CB
:1004C00080E060D45BD452D480E95CD480E05AD41C
:1004D0004DD481E957D460D48093090167D48093C7
:1004E0000A014CD46091090170910A0176276727AF
:1004F000762776956795729562956F7067277F70FE
:100500006727072E000C880B990B33D520E030E0CD
:100510004AEF52E4E2D5FFD47093040160930301E3
:10052000709302016093010121D482EA2BD482E00E
:1005300029D480E011D426D48AE30ED423D487E1D1
:100540000BD420D41BD4C1E03AE0832E912CA12CF3
:10055000B12C49E6442E55245394612C712C50E162
:10056000252E57E2352E0AE010E06DE071E085E5BA
:1005700091E084DDFBD382EA05D482E003D4F6D394
:1005800083EA00D409D48F77DCD38093510104D45B
:100590008F77D7D38093520109D48F73D2D38093AE
:1005A0005301ECD36099DAC0809100018F5F8F3FD7
:1005B00009F4FBC08093000180915301863008F458
:1005C000D4C010925D0110925E0180915F01811193
:1005D00010C010928B0010928A008091800080627F
:1005E000809380005898C0935F0180915D018111D4
:1005F000BCCF80914A018111A5C120915C01D091AD
:100600005101211115C0809153016AE0D9D3809323
:1006100055019093560180915201D2D38093570196
:10062000909358018D2FCCD38093590190935A0108
:1006300080910C0181112BC130910B018091070138
:1006400090910801D0FFBDC1332339F001969093FA
:1006500008018093070110920B0180319E4009F43C
:10066000B8C08BEF8D0F853008F0F5C0213009F44C
:100670007CCF2091010130910201C901B101ACD3BD
:1006800060935701C90168EE73E0A6D3CB01B801AE
:10069000A3D380935801C90164E670E09DD3CB01D8
:1006A000B8019AD380935901C901B80195D3CB0100
:1006B000B80192D380935A01C0935C018DED8D0FE8
:1006C000853008F052CF82E080935C0110924B019C
:1006D00010924C0110924D0110924E0160E0609317
:1006E00055016093560160935701609358016093E0
:1006F000590160935A0180915001882309F435CF44
:1007000080914F01833009F41DC208F442C2853044
:1007100009F4F2C108F4C9C1863009F026CF60910E
:100720004B0170914C0180914D0190914E0121E25D
:1007300031E040E050E064D3CA01B901A501940161
:100740005FD3262F60935A018D2F6AE039D392131D
:100750000CCF1092500110925C0107CF1092000153
:1007600080915301863008F02CCFC0935E016DE07C
:1007700071E085E591E0AFDC20E030E048EC52E448
:100780006091420170914301809144019091450133
:10079000BED387FF2ACF80915F018111C0C08091B5
:1007A000510180FF14C0589A20CF10920001DED270
:1007B00082EAE8D282E0E6D280E0CED2E3D280E0E4
:1007C000CBD2E0D284E1C8D2DDD2D8D2F5CE5898CF
:1007D0000CCFCCD280E9D6D280E0D4D2C7D281E986
:1007E000D1D2DAD280930901E1D280930A01C6D234
:1007F0006091090170910A0176276727762776951F
:100800006795729562956F7067277F706727072ECF
:10081000000C880B990BADD320E030E04AEF52E496
:100820005CD479D37093020160930101209103019C
:1008300030910401C901861B970B909306018093A8
:100840000501C0930C01D091510120915C018BEF07
:100850008D0F853000F1213009F4BDC08DED8D0F75
:10086000853008F004C1223009F02DCF60914B0192
:1008700070914C0180914D0190914E01A301920124
:10088000BFD2CA01B901A5019401BAD228CF8BEF1A
:100890008D0F853000F7213009F467CE67D280E9EB
:1008A00071D280E06FD262D281E96CD275D280932E
:1008B00009017CD280930A0161D260910901709193
:1008C0000A01762767277627769567957295629550
:1008D0006F7067277F706727072E000C880B990BB6
:1008E00048D320E030E04AEF52E4F7D36B017C01BB
:1008F0006091050170910601072E000C880B990B81
:1009000038D39B01AC01C701B6019DD204D39B0132
:100910007093020160930101D0915101AECE10920B
:100920008B0010928A00809180008F7D80938000E0
:1009300010925F01C0935D011092080110920701AF
:1009400098DB2DCF209111013091120140911301BC
:1009500050911401609142017091430180914401D2
:10096000909145016FD2AB01BC018EE191E03ED187
:100970006B017C0120E030E0A901C9D287FD7BC07A
:1009800023E333E343E35FE3C701B601A2D31816C1
:100990000CF47CC0C0924601D0924701E09248011D
:1009A000F092490120E030E84FEF53E4C701B6016F
:1009B00094D3B1D270938B0060938A0010924A0155
:1009C0001CCE31114ACE0196909308018093070105
:1009D000C0930B0142CE739882E080935C01D0916A
:1009E00051018DED8D0F853008F440CF809150017D
:1009F000811186CE10925601109257011092580123
:100A00001092590110925A0110924B0110924C0110
:100A100010924D0110924E01C0934F01C0935001AE
:100A200060914B0170914C0180914D0190914E016C
:100A300021E231E040E050E0E3D1CA01B901A50173
:100A40009401DED1262F60935501809153016AE015
:100A5000B7D182138ACD82E080934F0110924B016F
:100A600010924C0110924D0110924E017ECD223019
:100A700009F4BCCF7ACD1092460110924701109232
:100A800048011092490170E060E094CF83E393E362
:100A9000A3E3BFE38093460190934701A0934801ED
:100AA000B093490165E671E085CF60914B0170918B
:100AB0004C0180914D0190914E0121E231E040E0E6
:100AC00050E09ED1CA01B901A501940199D1262F08
:100AD00060935801809152016AE072D1921345CD22
:100AE00085E080934F0110924B0110924C011092BF
:100AF0004D0110924E0139CD60914B0170914C0126
:100B000080914D0190914E0121E231E040E050E0B2
:100B100077D1CA01B901A501940172D1262F609342
:100B200059018D2F6AE04CD182131FCD96E090932E
:100B30004F0110924B0110924C0110924D011092F6
:100B40004E0113CD60914B0170914C0180914D018C
:100B500090914E0121E231E040E050E051D1CA01D4
:100B6000B901A50194014CD1262F609357018091C2
:100B700052016AE025D18213F8CC84E080934F01C2
:100B800010924B0110924C0110924D0110924E01A7
:100B9000ECCC813009F444CF823009F0E6CC60918E
:100BA0004B0170914C0180914D0190914E0121E2D9
:100BB00031E040E050E024D1CA01B901A50194011F
:100BC0001FD1262F60935601809153016AE0F8D01F
:100BD0009213CBCC83E080934F0110924B01109283
:100BE0004C0110924D0110924E01BFCC4F925F927A
:100BF0006F927F928F929F92AF92BF92CF92DF922D
:100C0000EF92FF92CF93DF93EC016A017B018C841A
:100C10009D84AE84BF84288139814A815B81CB0168
:100C2000B6015BD22B013C012C813D814E815F815D
:100C3000C501B40152D29B01AC01C301B20103D181
:100C40002C893D894E895F89FED02B013C01288982
:100C500039894A895B89688579858A859B853DD2F2
:100C60009B01AC01C301B201EED0888A998AAA8A9D
:100C7000BB8ACC86DD86EE86FF866C8B7D8B8E8B69
:100C80009F8BDF91CF91FF90EF90DF90CF90BF903F
:100C9000AF909F908F907F906F905F904F9008954E
:100CA0004F925F926F927F928F929F92AF92BF927C
:100CB000CF92DF92EF92FF92CF93DF93EC014A0144
:100CC0005B01488C598C6A8C7B8CC8A0D9A0EAA0A7
:100CD000FBA02C8D3D8D4E8D5F8DC301B201B3D035
:100CE000A7019601B0D0688379838A839B83A7018B
:100CF0009601C701B601A7D0A3019201A4D09058D4
:100D00006C837D838E839F83C886D986EA86FB8623
:100D100089288A288B2831F02C968CE0FE011192CC
:100D20008A95E9F7DF91CF91FF90EF90DF90CF9018
:100D3000BF90AF909F908F907F906F905F904F90FB
:100D40000895282F22952F70922F990F990F920FA7
:100D5000990F8F70890F08956AE032D08295807F55
:100D6000892B089588E48093B800089584EA8093DD
:100D7000BC008091BC0087FFFCCF089584E980937C
:100D8000BC0008958093BB0084E88093BC008091F0
:100D9000BC0087FFFCCF089584EC8093BC00809159
:100DA000BC0087FFFCCF8091BB00089584E880934E
:100DB000BC008091BC0087FFFCCF8091BB000895F0
:100DC000991B79E004C0991F961708F0961B881F9D
:100DD0007A95C9F780950895AA1BBB1B51E107C0FE
:100DE000AA1FBB1FA617B70710F0A61BB70B881FBB
:100DF000991F5A95A9F780959095BC01CD0108954A
:100E0000A1E21A2EAA1BBB1BFD010DC0AA1FBB1F0E
:100E1000EE1FFF1FA217B307E407F50720F0A21B80
:100E2000B30BE40BF50B661F771F881F991F1A94ED
:100E300069F760957095809590959B01AC01BD0117
:100E4000CF0108955058BB27AA270ED008C1F9D06A
:100E500030F0FED020F031F49F3F11F41EF4EEC0CC
:100E60000EF4E095E7FBE4C0E92F0AD180F3BA174E
:100E7000620773078407950718F071F49EF522C185
:100E80000EF4E0950B2EBA2FA02D0B01B9019001A5
:100E90000C01CA01A0011124FF27591B99F0593FE9
:100EA00050F4503E68F11A16F040A22F232F342F31
:100EB0004427585FF3CF469537952795A795F0407F
:100EC0005395C9F77EF41F16BA0B620B730B840B94
:100ED000BAF09150A1F0FF0FBB1F661F771F881F4C
:100EE000C2F70EC0BA0F621F731F841F48F48795A4
:100EF00077956795B795F7959E3F08F0B3CF939593
:100F0000880F08F09927EE0F9795879508956CD074
:100F100008F481E00895BCD088F09F5790F0B92F75
:100F20009927B751A0F0D1F0660F771F881F991F3E
:100F30001AF0BA95C9F712C0B13081F0C3D0B1E050
:100F40000895C0C0672F782F8827B85F39F0B93F60
:100F5000CCF3869577956795B395D9F73EF4909540
:100F60008095709561957F4F8F4F9F4F0895E894BE
:100F700009C097FB3EF490958095709561957F4FE1
:100F80008F4F9F4F9923A9F0F92F96E9BB2793958F
:100F9000F695879577956795B795F111F8CFFAF49F
:100FA000BB0F11F460FF1BC06F5F7F4F8F4F9F4FD0
:100FB00016C0882311F096E911C0772321F09EE82E
:100FC000872F762F05C0662371F096E8862F70E094
:100FD00060E02AF09A95660F771F881FDAF7880F6E
:100FE0009695879597F90895990F0008550FAA0BC4
:100FF000E0E8FEEF16161706E807F907C0F012162C
:101000001306E407F50798F0621B730B840B950B2E
:1010100039F40A2661F0232B242B252B21F4089583
:101020000A2609F4A140A6958FEF811D811D089520
:1010300097F99F6780E870E060E008959FEF80EC8B
:10104000089500240A94161617061806090608952E
:1010500000240A9412161306140605060895092E94
:101060000394000C11F4882352F0BB0F40F4BF2B03
:1010700011F460FF04C06F5F7F4F8F4F9F4F089543
:1010800057FD9058440F551F59F05F3F71F0479539
:10109000880F97FB991F61F09F3F79F0879508951E
:1010A000121613061406551FF2CF4695F1DF08C03D
:1010B000161617061806991FF1CF8695710561055A
:1010C00008940895E894BB2766277727CB0197F902
:1010D00008958ADF08F48FEF08950AD0C0CFB1DFFA
:1010E00028F0B6DF18F0952309F0A2CFA7CFEBCFF9
:1010F000C7DFA8F39923D9F35523C9F3950F50E01F
:10110000551FAA27EE27FF27BB27002408946795C1
:1011100020F4E20FF31FB41F0A1E220F331F441FD7
:10112000AA1F6695A9F7779530F4F30FB41F0A1E2E
:10113000121E08F46395330F441FAA1F221F7695D1
:1011400099F7879520F4B40F0A1E121E631F440FEF
:10115000AA1F221F331F8695A9F7862F712D602D98
:1011600011249F5750408AF0E1F088234AF0EE0F97
:10117000FF1FBB1F661F771F881F91505040A9F7A4
:101180009E3F510570F054CF9ECF5F3FECF3983EE9
:10119000DCF3869577956795B795F795E7959F5F0B
:1011A000C1F7FE2B880F911D9695879597F90895A5
:0411B000F894FFCFE1
:00000001FF
