S014000044696769737061726B5049442E7372656395
S113000042C05CC05BC05AC059C058C057C056C03B
S113001055C054C053C052C067C150C04FC04EC039
S1130020AAC24CC04BC04AC095C09AC0A0C0A6C0CA
S1130030ACC0B2C0B8C0BEC0C4C0CAC0D0C07BC10E
S113004083C185C18AC18CC194C196C19BC19DC124
S1130050A5C1A7C1ACC1C8C1D2C1D4C1D6C1DEC17A
S1130060E0C1E2C1EAC1ECC1EEC1F3C1F5C112C203
S11300701AC21CC221C223C22BC22DC232C234C234
S11300803CC23EC243C211241FBECFEFD2E0DEBF4A
S1130090CDBF11E0A0E0B1E0E8E5F3E102C00590D6
S11300A00D92A430B107D9F721E0A4E0B1E001C07A
S11300B01D92A336B207E1F7F4D24CC9A1CFEAE707
S11300C0F0E080818F6A8083ACE7B0E08C91807F20
S11300D08C938C918F7B8C93808180648083089532
S11300E085B5886085BDEEE6F0E08081826080831E
S11300F087E287BD85B5846085BD0895A0E8B0E03A
S11301008C9182608C93E1E8F0E080818860808348
S11301108C9180628C9380818160808308958CE0CF
S11301208DB98EB18B7F8EB98DB18E7F8DB98EB125
S113013081608EB984E084B915B88FEF8AB91BB891
S1130140089590E08B30910508F04BC0FC01EC5E03
S1130150FF4F09948BB1807E8BB98BB18BB9089515
S11301608BB1807E8BB98BB182608BB908958BB1D2
S1130170807E8BB98BB184608BB908958BB1807EFE
S11301808BB98BB186608BB908958BB1807E8BB9A6
S11301908BB188608BB908958BB1807E8BB98BB19C
S11301A08A608BB908958BB1807E8BB98BB18C60DA
S11301B08BB908958BB1807E8BB98BB18E608BB96E
S11301C008958BB1807E8BB98BB180618BB9089512
S11301D08BB1807E8BB98BB182618BB9089588E134
S11301E08BB908956AE074D8809326019093250111
S11301F008959C0160E177E277D860932601E8EEE8
S1130200F3E0BF0171D860932501C901BF016CD827
S1130210E4E6F0E0BF0168D860932401C901BF019E
S113022063D86AE070E060D8609323010895CF92A8
S1130230DF92EF92FF9280911E01811124C0809180
S11302401F01811120C0C0903501D0903601E0908B
S11302503701F090380120E030E044E353E4C70173
S1130260B6017DD618167CF02AE037ED43EA5CE34C
S1130270C701B60110D6609335017093360180939F
S1130280370190933801FF90EF90DF90CF9008955D
S1130290CF92DF92EF92FF9280911F018130F9F4A7
S11302A0C0903501D0903601E0903701F0903801CC
S11302B020E030E0A901C701B6019BD718167CF4F1
S11302C02AE037ED43EA5BE3C701B601E3D5609367
S11302D03501709336018093370190933801FF9074
S11302E0EF90DF90CF9008951F920F920FB60F9268
S11302F011242F933F934F935F936F937F938F9327
S11303009F93AF93BF93EF93FF9380911E0181114D
S113031021C180910101813009F055C0E0910001B3
S11303208E2F90E0FC013197EC30F10508F041C0CC
S1130330E15EFF4F099488E38BB980912A0152DF73
S113034080912601FEDE35C08AE0FBDE32C088E5FE
S11303508BB980912501F5DE2CC08AE0F2DE29C03C
S113036088E78BB980912B013DDF80912601E9DE7E
S113037020C08AE0E6DE1DC088E98BB980912501A2
S1130380E0DE17C08AE0DDDE14C088EB8BB9809113
S11303902C0128DF80912601D4DE0BC08AE0D1DE57
S11303A008C088ED8BB980912501CBDE02C08AE0BC
S11303B0C8DE809100018F5F809300018E3018F0B9
S11303C081E08093000180910101823009F050C0E6
S11303D0E09100018E2F90E0FC013197EC30F105A3
S11303E0E8F5E55DFF4F099488E78BB980911B011F
S11303F090911C01FEDE80912601A3DE2FC08AE0CD
S1130400A0DE2CC08AE09DDE29C088E98BB98091EA
S1130410250197DE8EB188608EB920C08AE091DE16
S11304201DC08AE08EDE1AC088EB8BB9809124014E
S113043088DE8EB1877F8EB911C08AE082DE0EC05D
S11304408AE07FDE0BC088ED8BB98091230179DED1
S113045005C08AE076DE02C08AE073DE8091000186
S11304608F5F809300018E3018F081E0809300014B
S113047080910101833009F055C0E09100018E2F75
S113048090E0FC013197EC30F10508F041C0E95CE3
S1130490FF4F099480912701A5DE88E38BB98091F1
S11304A025014FDE35C08AE04CDE32C088E58BB9C9
S11304B08091250146DE2CC08AE043DE29C080916C
S11304C0280190DE88E78BB9809125013ADE20C0AF
S11304D08AE037DE1DC088E98BB98091250131DEC1
S11304E017C08AE02EDE14C0809129017BDE88EBE0
S11304F08BB98091250125DE0BC08AE022DE08C07D
S113050088ED8BB9809125011CDE02C08AE019DEDA
S1130510809100018F5F809300018E3018F081E09C
S11305208093000180910F019091100101969093A6
S1130530100180930F0180910501823020F48F5FB8
S11305408093050107C080910601816080930601B4
S113055010920501FF91EF91BF91AF919F918F91FF
S11305607F916F915F914F913F912F910F900FBEAB
S11305700F901F9018951F920F920FB60F9211248F
S11305802F933F934F935F936F937F938F939F9397
S1130590AF93BF93EF93FF93809104018530E0F410
S11305A0209178003091790040910B0150910C0119
S11305B060910D0170910E01420F531F611D711D59
S11305C040930B0150930C0160930D0170930E0145
S11305D08F5F8093040141C01092040160910B016C
S11305E070910C0180910D0190910E0125E030E095
S11305F040E050E08DD6CA01B90149D560930701A6
S1130600709308018093090190930A0110920B01E1
S113061010920C0110920D0110920E012DEC3CEC85
S11306204CE85FE3EAD520E030EC4FE754E49BD498
S1130630609341017093420180934301909344017C
S113064020E030E043E553E4D8D560933D01709356
S11306503E0180933F019093400160913D01709170
S11306603E0180913F019091400120E030E048E458
S113067053E4BFD5181624F410928B0010928A000C
S1130680FF91EF91BF91AF919F918F917F916F9166
S11306905F914F913F912F910F900FBE0F901F903C
S11306A018953DDD1DDD2ADD0ADD0F2EF6E4CF2E83
S11306B0F1E0DF2EF02DE12CF12C87012DEC3CEC48
S11306C04CE45DE360E070E080EA90E45CD2B4D393
S11306D078942FEF83ED90E3215080409040E1F730
S11306E000C00000ADD380E9B7D380E0B5D3A8D370
S11306F081E9B2D3BBD380936201C2D38093450115
S1130700A7D36091620170E0762F6627809145013E
S1130710682B76956795729562956F7067277F70E1
S11307206727072E000C880B990BB3D420E030E028
S113073040E05EE362D520E030E04AE754E45DD572
S11307407AD470931A016093190171DD79D382EA26
S113075083D382E081D374D383EA7ED387D38F7724
S11307608093220183D38F778093210189D38F7360
S1130770809320016DD38091220146D380932C0174
S11307808091210141D380932B01809120013CD39E
S113079080932A01609919C080911D018F3F21F037
S11307A08F5F80931D0111C04BD382EA55D382E041
S11307B053D380E035D350D380E032D34DD384E19A
S11307C02FD34AD345D310921D0180912A0186303C
S11307D0F8F581E080931F015BDD60913501709134
S11307E03601809137019091380120E030E048ECE7
S11307F052E4B5D388230CF03FC081E080931E01FE
S11308008AE09FDC80910201813059F410928B00C0
S113081010928A00E0E8F0E080818F7D808310925E
S1130820020180912C0180FF27C08BB181608BB9BC
S11308308FE891E00197F1F700C000008BB18E7F43
S11308408BB98FE193E00197F1F700C0000014C069
S113085010921E0110921F018091020181110CC09F
S113086010928B0010928A00E0E8F0E080818062B0
S1130870808381E08093020180911E01811165CF04
S11308808091060180FF44C020913D0130913E01DA
S113089040913F0150914001209331013093320146
S11308A040933301509334016091350170913601C6
S11308B0809137019091380106E411E096D160935C
S11308C02D0170932E0180932F01909330012FE717
S11308D03AE64CEB5EE391D46093390170933A01AC
S11308E080933B0190933C0120E030E048EC52E4DB
S11308F03AD320E030E040E054E47FD49CD37093BA
S11309008B0060938A00809106018E7F809306019C
S113091080912C01893009F051C080911701909188
S11309201801892B09F442C08BD280E995D280E06A
S113093093D286D281E990D299D280936201A0D2D7
S11309408093450185D26091620170E0762F66271D
S113095080914501682B76956795729562956F70C5
S113096067277F706727072E000C880B990B91D39C
S113097020E030E040E05EE340D46B017C01609114
S113098015017091160180E090E081D39B01AC01C8
S1130990C701B6017FD220E030E04AE754E42DD409
S11309A04AD370931C0160931B0108C08091190104
S11309B090911A0190931C0180931B0180912C014A
S11309C096EF980F953018F492E0909301018F30D0
S11309D031F481E0809301018EB1877F8EB98091DB
S11309E0170190911801892B09F081C080912C0185
S11309F0982F917080FF15C0209111013091120140
S1130A002130310571F420911301309114012F5FCD
S1130A103F4F30931401209313011092120110924E
S1130A201101911115C08091110190911201892B2E
S1130A3079F480911301909114010196909314011B
S1130A408093130181E090E090931201809311014F
S1130A50809113019091140180319E4009F047C0A8
S1130A60EFD180E9F9D180E0F7D1EAD181E9F4D17D
S1130A70FDD18093620104D280934501E9D1609154
S1130A80620170E0762F662780914501682B769588
S1130A906795729562956F7067277F706727072E39
S1130AA0000C880B990BF5D220E030E040E05EE3C7
S1130AB0A4D320E030E04AE754E49FD3BCD270933F
S1130AC01C0160931B012091190130911A01CB0183
S1130AD0821B930B68EE73E007D470931601609346
S1130AE0150181E090E09093180180931701209103
S1130AF02C012D3121F41092100110920F0182EE7D
S1130B00820F853088F483E08093010180910F0186
S1130B109091100168E871E0E7D360932901609334
S1130B2028016093270105C0233219F481E08093E2
S1130B300101263321F41092100110920F0189EC67
S1130B40820F8530D0F483E08093010120910F015E
S1130B5030911001C90164EC70E0C6D3609329019F
S1130B60C90162E670E0C0D360932801C90161E362
S1130B7070E0BAD360932701E8CD2111E6CD81E07E
S1130B8080930101E2CDCF92DF92EF92FF920F9317
S1130B901F93F60114821582168217821082118225
S1130BA012821382608771878287938724873587AF
S1130BB046875787E08AF18A028B138B80E090E0A6
S1130BC0AEE3B3E4848B958BA68BB78B80E090E087
S1130BD0AAE7B5E4808F918FA28FB38F1F910F91F5
S1130BE0FF90EF90DF90CF9008954F925F926F92B5
S1130BF07F928F929F92AF92BF92CF92DF92EF92A9
S1130C00FF920F931F93CF93DF9300D000D000D0B7
S1130C10CDB7DEB769017A011E830D833BD14B0149
S1130C205C01D80154964D905D906D907C905797DF
S1130C30A3019201DED218169CF0A3019201505830
S1130C40C501B4018CD18823A4F0F8012085318535
S1130C5042855385C501B401D0D22B013C0111C09A
S1130C600F2E412C512CFEE36F2EF3E47F2EF02D3A
S1130C7008C00F2E412C512CFEE36F2EF3EC7F2E77
S1130C80F02DAD81BE8114962D913D914D915C91D5
S1130C901797C501B401FFD069837A838B839C8342
S1130CA0ED81FE81808C918CA28CB38CA501940182
S1130CB0A0D21816B4F4AD81BE8114968D929D9283
S1130CC0AD92BC9217971C962D913D914D915C91DC
S1130CD01F97C501B40191D269837A838B839C8366
S1130CE034C0B7FAB094B7F8B094A50194016981FF
S1130CF07A818B819C8133D1882394F4ED81FE81A8
S1130D0084829582A682B782248535854685578557
S1130D10C501B40172D269837A838B839C8315C025
S1130D2089819A81AB81BC81ED81FE818483958325
S1130D30A683B7832485358546855785BC01CD01B7
S1130D405CD269837A838B839C83AD81BE81509608
S1130D508D909D90AD90BC9053976D917D918D91A8
S1130D609C91A701960196D09B01AC01C501B401E9
S1130D7044D24B015C01ED81FE81C082D182E282CA
S1130D80F38229813A814B815C81C301B20183D012
S1130D909B01AC01C501B4017ED06B017C0120E054
S1130DA030E04EE353E425D218164CF020E030E056
S1130DB0A901C701B601D3D088236CF409C00F2E52
S1130DC0C12CD12CFEE3EF2EF3E4FF2EF02D03C053
S1130DD0C12CD12C7601C701B60126960FB6F89422
S1130DE0DEBF0FBECDBFDF91CF911F910F91FF905A
S1130DF0EF90DF90CF90BF90AF909F908F907F90B7
S1130E006F905F904F900895982F92959F70292F1F
S1130E10220F220F920F292F220F8F70820F089515
S1130E206AE056D2292F90E082959295907F982778
S1130E30807F9827822B089588E48093B8000895D2
S1130E4084EA8093BC008091BC008823E4F7089571
S1130E5084E98093BC0008958093BB0084E8809368
S1130E60BC008091BC008823E4F7089584EC80934F
S1130E70BC008091BC008823E4F78091BB000895F6
S1130E8084E88093BC008091BC008823E4F78091BF
S1130E90BB0008955058BB27AA270ED070C161D15A
S1130EA030F066D120F031F49F3F11F41EF456C1A6
S1130EB00EF4E095E7FB4CC1E92F72D180F3BA1729
S1130EC0620773078407950718F071F49EF58AC1C9
S1130ED00EF4E0950B2EBA2FA02D0B01B901900151
S1130EE00C01CA01A0011124FF27591B99F0593F95
S1130EF050F4503E68F11A16F040A22F232F342FDD
S1130F004427585FF3CF469537952795A795F0402A
S1130F105395C9F77EF41F16BA0B620B730B840B3F
S1130F20BAF09150A1F0FF0FBB1F661F771F881FF7
S1130F30C2F70EC0BA0F621F731F841F48F487954F
S1130F4077956795B795F7959E3F08F0B3CF93953E
S1130F50880F08F09927EE0F979587950895D4D0B8
S1130F6008F481E008950CD00AC102D140F0F9D010
S1130F7030F021F45F3F19F0EBC0511134C1EEC0E1
S1130F800FD198F39923C9F35523B1F3951B550B4E
S1130F90BB27AA2762177307840738F09F5F5F4F48
S1130FA0220F331F441FAA1FA9F333D00E2E3AF089
S1130FB0E0E830D091505040E695001CCAF729D0A3
S1130FC0FE2F27D0660F771F881FBB1F26173707F2
S1130FD04807AB07B0E809F0BB0B802DBF01FF2722
S1130FE093585F4F2AF09E3F510568F0B1C0FBC093
S1130FF05F3FECF3983EDCF3869577956795B7955C
S1131000F7959F5FC9F7880F911D9695879597F976
S11310100895E1E0660F771F881FBB1F62177307EF
S11310208407BA0720F0621B730B840BBA0BEE1F04
S113103088F7E0950895BCD088F09F5790F0B92FB9
S11310409927B751A0F0D1F0660F771F881F991F19
S11310501AF0BA95C9F712C0B13081F0C3D0B1E02B
S11310600895C0C0672F782F8827B85F39F0B93F3B
S1131070CCF3869577956795B395D9F73EF490951B
S11310808095709561957F4F8F4F9F4F0895E89499
S113109009C097FB3EF490958095709561957F4FBC
S11310A08F4F9F4F9923A9F0F92F96E9BB2793956A
S11310B0F695879577956795B795F111F8CFFAF47A
S11310C0BB0F11F460FF1BC06F5F7F4F8F4F9F4FAB
S11310D016C0882311F096E911C0772321F09EE809
S11310E0872F762F05C0662371F096E8862F70E06F
S11310F060E02AF09A95660F771F881FDAF7880F49
S11311009695879597F90895990F0008550FAA0B9E
S1131110E0E8FEEF16161706E807F907C0F0121606
S11311201306E407F50798F0621B730B840B950B09
S113113039F40A2661F0232B242B252B21F408955E
S11311400A2609F4A140A6958FEF811D811D0895FB
S113115097F99F6780E870E060E008959FEF80EC66
S1131160089500240A941616170618060906089509
S113117000240A9412161306140605060895092E6F
S11311800394000C11F4882352F0BB0F40F4BF2BDE
S113119011F460FF04C06F5F7F4F8F4F9F4F08951E
S11311A057FD9058440F551F59F05F3F71F0479514
S11311B0880F97FB991F61F09F3F79F087950895F9
S11311C0121613061406551FF2CF4695F1DF08C018
S11311D0161617061806991FF1CF86957105610535
S11311E008940895E894BB2766277727CB0197F9DD
S11311F008958ADF08F48FEF08950AD0C0CFB1DFD5
S113120028F0B6DF18F0952309F0A2CFA7CFEBCFD3
S1131210C7DFA8F39923D9F35523C9F3950F50E0F9
S1131220551FAA27EE27FF27BB270024089467959C
S113123020F4E20FF31FB41F0A1E220F331F441FB2
S1131240AA1F6695A9F7779530F4F30FB41F0A1E09
S1131250121E08F46395330F441FAA1F221F7695AC
S113126099F7879520F4B40F0A1E121E631F440FCA
S1131270AA1F221F331F8695A9F7862F712D602D73
S113128011249F5750408AF0E1F088234AF0EE0F72
S1131290FF1FBB1F661F771F881F91505040A9F77F
S11312A09E3F510570F054CF9ECF5F3FECF3983EC4
S11312B0DCF3869577956795B795F795E7959F5FE6
S11312C0C1F7FE2B880F911D9695879597F9089580
S11312D0991B79E004C0991F961708F0961B881F84
S11312E07A95C9F780950895AA1BBB1B51E107C0E5
S11312F0AA1FBB1FA617B70710F0A61BB70B881FA2
S1131300991F5A95A9F780959095BC01CD01089530
S1131310A1E21A2EAA1BBB1BFD010DC0AA1FBB1FF5
S1131320EE1FFF1FA217B307E407F50720F0A21B67
S1131330B30BE40BF50B661F771F881F991F1A94D4
S113134069F760957095809590959B01AC01BD01FE
S10B1350CF010895F894FFCFCA
S1071358010101008A
S9030000FC
